:020000022000DC
:10600000000001203D6202009562020097620200DA
:10601000996202009B6202009D6202000000000083
:106020000000000000000000000000009F6202006D
:10603000A162020000000000A3620200A56202004B
:10604000C59C0200AB620200A5A10200AF62020083
:10605000B1620200B362020019A00200B76202003E
:10606000B9620200BB620200BD620200BF620200B0
:10607000C1620200C3620200C5620200C762020080
:10608000C9620200E5710200CD620200CF62020027
:1060900081720200D362020035F00200D762020072
:1060A000D9620200DB620200DD620200DF620200F0
:1060B000E1620200E3620200A7620200A76202003E
:1060C000E5620200E7620200E9620200EB620200A0
:0C60D000ED620200EF620200F1620200CB
:1060DC00364937480A1A02D0072291438D46354972
:1060EC0035480A1A06D00722914381F30988022207
:1060FC0082F3148831483249324A00F045F832486C
:10610C003249334A00F040F832483349334A00F000
:10611C003BF833483349344A00F036F833483449B5
:10612C00344A00F031F834483449354A00F02CF840
:10613C0034483549354A00F027F8354835490022AE
:10614C0000F02DF834483549002200F028F8344886
:10615C003449091A082903DB00220260043001606B
:10616C00314A90471F482049884205D002680430C4
:10617C0003B4904703BCF7E700208646EC460020AA
:10618C0000212A4A9047FEE7884207D0521A05D0D0
:10619C00037801300B700131013AF9D17047884214
:1061AC0002D002700130FAE77047000000000120B5
:1061BC0000E00020000001200000012084110300F9
:1061CC006C220020E0220020F4620200F462020043
:1061DC00E2F50200841103006C2200206C220020E6
:1061EC0050F7020050F7020050F7020050F702007F
:1061FC0050F7020050F7020050F7020050F702006F
:10620C0084110300F8110300E0220020E02200209A
:10621C00E02200201031002010310020103100202D
:10622C001031002010510020616202001DB50200E7
:10623C000F484FF00701884385460E4880470E48AB
:10624C00016841F470010160BFF34F8FBFF36F8F92
:10625C00FFF73EBF09480A490A4A884207D0521A3A
:10626C0005D0037801300B700131013AF9D1704738
:10627C00000001209195020088ED00E0FCF6020080
:10628C00182200206C220020FEE7FEE7FEE7FEE766
:10629C00FEE7FEE7FEE7FEE7FEE7FEE7FEE7FEE7CA
:1062AC00FEE7FEE7FEE7FEE7FEE7FEE7FEE7FEE7BA
:1062BC00FEE7FEE7FEE7FEE7FEE7FEE7FEE7FEE7AA
:1062CC00FEE7FEE7FEE7FEE7FEE7FEE7FEE7FEE79A
:1062DC00FEE7FEE7FEE7FEE7FEE7FEE7FEE7FEE78A
:0862EC00FEE7FEE7FEE700BF3C
:1062F400F0B595B01C46164608460D4603F041F825
:106304001A9B0D93CDE9086400242346082205A9AD
:1063140028460A948DF82C400C9403F04CF8079B03
:106324000293BDF81830ADF80C30BDF81A30ADF852
:106334000E309DF814308DF8114003F00302012A49
:106344001DD1BDF81440059EC3F3C203C4F38314E6
:106354008DF81030A20008230EA9284603F02BF86C
:10636400C6F3952608AB0093224602AB0EA930462D
:1063740000F028FC284603F008F815B0F0BD022A06
:10638400F8D1BDF81640C3F3C203A4098DF8103048
:106394000827082C264628BF08263B4632460EA965
:1063A400284603F008F8A41B08AB02AA31460EA83D
:1063B400374400F06BFC002CEBD1DBE7014B0122EE
:1063C4001A707047212300207047000070B50F4DEC
:1063D40006460FCD88B06C460FC495E80F0084E8DC
:1063E4000F0008A9002E4FF00603094A41F8203D8A
:1063F40008BF0022074803F0CDFB18B1064A432129
:1064040000F00EFE054B1E7008B070BD50F7020080
:10641400C16302006C2200207CF70200E02200200D
:1064240007B5044B0093044A4023FFF761FF03B010
:106434005DF804FB41640200E122002038B50E4BF4
:106444000E4D002018700E4804782D5DD2B21C4603
:1064540075B1043004F0B6FB18B10A4A532100F0B8
:10646400DFFD094B1A7812B12378002BFBD038BD1D
:106474000C3004F02DF9EFE721230020882B0020B5
:106484006C2200207CF70200E022002008B50848B6
:10649400084A0378D35C3BB1043004F03DFB002090
:1064A400BDE80840FFF792BF0C3004F0BBF8F6E7F4
:1064B4006C220020882B00200120FFF787BF0000FA
:1064C40008B5FFF7F9FF0421064800F0EBFA0028AD
:1064D40003DA0549482005F017F8024B01225A72E5
:1064E40008BD00BF80220020F4F7020008B503783D
:1064F40013F0030F03F0040202D012B9104608BDD2
:10650400DAB103F00303012B07D0022B0ED00E499E
:106514004FF4A47004F0F8FF06E00A680088023221
:10652400C0F3831002440A600120E8E70B68428844
:10653400023303EB92130B60F6E70B6842880133D6
:1065440003EB92130288F4E770F802002DE9F04F90
:1065540089B00646871C08A8484C009200230D46C3
:1065640000F8113D01F054F823682B60D4E90123AD
:106574001344226801339B1A04F21C4804F5836B0C
:1065840004F21449BB421AD3009A0023002A6DD0A6
:10659400012262F3010343F0040366F389132168C3
:1065A400A2689DF80F000A4003320F4444F82230D9
:1065B400276001F05DF8012009B0BDE8F08F0121EA
:1065C400404602F0DDF8584602F0F3F80DF1200AD7
:1065D400484602F0EEF860684AF8100DA5682840B5
:1065E400033004EB80005146FFF780FF0246049815
:1065F400002AF4D105EA000304EB8303811CDB6861
:1066040005930130054004EB850503F00303012BDA
:106614000491ED6823D0022B08D0194901924FF45C
:10662400C27004F071FF019A154607E0BDF81630F8
:106634009B0903332D0C01EB93030493484602F0AA
:10664400BBF808B1049B63602946404602F098F801
:10665400D4E901231344226801339B1A92E7BDF85D
:106664001430C3F383132D0C0B44E6E7022262F3C8
:10667400010343F0040366F39F5390E7F4230020DF
:1066840070F8020008B50E4B0E48FF229A600022F3
:10669400C3F81824C3E90022C3F8142483F820247F
:1066A40002F028FE38B9084A084B09499B1ADB084E
:1066B40002469A4200D108BD21F822200132F8E7AF
:1066C400F4230020BCF602003CF60200BCF60200F3
:1066D4001822002030B50B4C79B10B4A0B49121B20
:1066E400D20800239A4201D1002030BD01EB83057A
:1066F4006D88854202D00133F4E7034654F8330031
:10670400F3E700BF3CF60200BCF6020018220020AA
:10671400094B013903EBC000032909D8DFE801F074
:106724000A020406042070470079704740797047D4
:1067340000207047022070473CF60200034BD3E967
:106744000030C31A58425841704700BFF423002058
:106754002DE9F04387B0FFF7F1FF0746002840F02A
:10676400F5807B4DC5F81804BFF34F8F6868AC689B
:106774000DF1180848F8100D2040033005EB800097
:106784004146FFF7B3FE029B064600285FD104EAA8
:106794000302991C013305EB8202234005EB8303BA
:1067A400D268DB68049302F00303022B0392029184
:1067B40062D1BDF80E3067484FEA9318B8F1500F14
:1067C400C14628BF4FF0500969F38F1309F108013E
:1067D400ADF80E3002F0A6FD0746002800F0A480B4
:1067E40002F0CFFD334603A90822384602F0DCFD4F
:1067F400029924EA01060136B600B14535D95FFA9B
:1068040089F97EB3F6B2A9EB0609214003315FFA98
:1068140089F4B146504E05EB810108234A463846B7
:1068240002F0C2FD36B109F108032246314638466A
:1068340002F0BAFD029B08F1030803EB98030293EC
:10684400D5F81834002B4AD1D5F8104458E02A68FA
:106854009A4204D86A60384607B0BDE8F08304EA77
:1068640003008AE73C493446D7E721400331082333
:106874004A4605EB8101DAE7012B55D1BDF80C300E
:106884003448C3F38311062928BF062161F3891311
:1068940002318900ADF80C3002F044FD07460028AF
:1068A40042D002F06EFD3346082203A9384602F0B6
:1068B4007BFDBDF80C20C2F38312B31C96424FEA51
:1068C4008303BDD202994A1C21400331029205EB95
:1068D40081010422384602F067FD0136E9E73846B3
:1068E40002F053FDFFF72AFF80F00100C7B2B2E7C0
:1068F400637A23B1236839461B6820469847646845
:10690400002CF5D1384602F040FD06A800F8114DE0
:1069140000F07EFED5F818340BB9029B6B609DF82D
:10692400070000F0A5FEDDE7D5F8104444B90B4B91
:106934000B491888000440F0020000F07FF8D1E70A
:10694400236820469B6898476468EFE7002782E73E
:10695400F4230020BCF60200002400202C22002096
:10696400E4F802002DE9F74F2F4C80460F4691467C
:1069740001A9012218469B46D4F808A0FFF7E6FDBA
:1069840000283DD0019D0026A91C5E4506EB0102AE
:1069940040D10021254801F0B2FE80F3100B244BB6
:1069A400244A4FEA18499B1AB9EBD30F04D322495E
:1069B40040F2A91004F0A8FD6B1C03EA0A0304EBDF
:1069C400830349EA0B42DA6005EA0A03033301212F
:1069D40014F8232068F3C50204F8232034F8232094
:1069E40066F3891224F8232054F8232067F39F22A6
:1069F40044F8232061F301026FF3820204F8232098
:106A040094F820341BB1FFF7A3FE0028FBD103B098
:106A1400BDE8F08F0AEA020204EB820259F826303C
:106A2400D3600136B1E700BFF42300201028002012
:106A3400BCF602003CF6020070F8020000231A467D
:106A4400FFF790BF13B502AC012344F8042D22468E
:106A5400FFF788FF02B010BD07B5CDE9002302237C
:106A64006A46FFF77FFF03B05DF804FB1FB5CDE96D
:106A74000123069B039301AA0323FFF773FF05B0C9
:106A84005DF804FB7FB5CDE90123089B0393099BC3
:106A940004930A9B059301AA0523FFF763FF07B03C
:106AA4005DF804FB0F4A30B5D2F8104400232146A8
:106AB40041B90372D2F810444CB9C2F810044160D1
:106AC400184630BD0D7A9D4205D04968F0E76268EA
:106AD40042606060F4E701330A2BE8D14FF0FF33E2
:106AE400EEE700BFF4230020084A38B50123D2F8AA
:106AF400104482F820341D4604B938BD23686572F9
:106B040020465B6898476468F6E700BFF4230020DA
:106B1400037A052B10B50C460FD0437A23B1084AEB
:106B24000849204601F0F0FE0749204601F0ECFE3A
:106B34002046BDE8104001F0D5BE002AF8D0F3E7A6
:106B44003FF9020044F9020064F90200C38873B5F6
:106B540004460D4633B1144A00921449144A284697
:106B640001F0D2FE217A05291CD0637A4BB1A088AA
:106B7400FFF7CEFD0F4B104953F82020284601F0B3
:106B8400C3FE227A0D4BA08853F822600021FFF740
:106B9400A1FD0B4903463246284602B0BDE87040C9
:106BA40001F0B2BE02B070BD3FF902004FF902001D
:106BB40047F902000CF9020044F9020074F90200DA
:106BC40067F902002DE9F04385B01F460C9D0023B0
:106BD40006460C46904695F80C902B732946384689
:106BE400FFF7B4FFB8F1060F09D8DFE808F0041284
:106BF400181F283340003146284601F085FE002244
:106C040029463846FFF784FF85F80C9005B0BDE8A7
:106C1400F08322683146284601F076FEEFE7D4E996
:106C240000233146284601F06FFEE8E7A36800938D
:106C34003146D4E90023284601F066FEDFE7E36825
:106C44000193A36800933146D4E90023284601F058
:106C54005BFED4E723690293E3680193A36800937E
:106C64003146D4E90023284601F04EFEC7E76369A4
:106C7400039323690293E3680193A3680093314665
:106C8400D4E90023284601F03FFEB8E708292DE99E
:106C9400F84F80460E4617461C4636D8002593F812
:106CA4000C901D7319461046FFF750FFDFF87CA0C7
:106CB400DFF87CB0AE422AD918F8052059462046A0
:106CC40001F022FE0135082DF4D11649DFF864B035
:106CD400204601F019FE0025AE421DD918F805A082
:106CE400504608F0B5FB002814BF52462E225946E0
:106CF400204601F009FE0135082DEDD1012221467F
:106D04003846FFF705FF84F80C90BDE8F88F51462C
:106D1400204601F0F9FDD5E70349204601F0F4FDD2
:106D2400E9E700BF3AF9020038F9020036F9020037
:106D340030F902003CF902002DE9F04F3B4F89B0D5
:106D440000263B4B1B78F5B2AB4202D809B0BDE834
:106D5400F08F384B196811F835000124A0F1200296
:106D6400C0F1200304FA02F924FA03F349EA0309FF
:106D7400D7E9002304FA00F8CDE9042302EA080263
:106D840003EA0903134301EBC50B4CD0DDE90423EB
:106D940022EA080223EA0903C7E90023079103F062
:106DA40023F90799844611F83500A0F12002C0F1B7
:106DB400200324FA03F304FA02F21A4304FA00F358
:106DC40000931D4B0192DDE90045D3E900231440F3
:106DD4001D4022462B465FFA8CF40025CDE904457C
:106DE400049CA0F12005AC400394049CC0F1200154
:106DF40024FA01F1039C0C43049903948140029109
:106E0400DDE90245AB4208BFA2420CD19BF8011058
:106E14004B1E59425941A1EB0C02DBF8043051429C
:106E2400514103B1984701368BE700BF4828002041
:106E34001828002050280020402800202DE9F84F71
:106E44000646244800F0C6FB002841D10123A6F1E0
:106E54002001C6F1200203FA01FB23FA02F203FA2D
:106E640006FA1D4BD3E900014BEA020B00EA0A08BB
:106E740001EA0B0958EA09021F4623D1304603F000
:106E8400B3F8164BB8B1D3E9000140EA0A0441EA69
:106E94000B05C3E90045D7E900234BEA0305104B72
:106EA4000C4819684AEA0204C7E900450022BDE813
:106EB400F84F00F04BBBD3E9000120EA0A0421EAB1
:106EC4000B05E6E720EA0A0421EA0B05C3E90045BD
:106ED400BDE8F88F20280020482800204028002002
:106EE4001C280020042A2DE9F34105460C461646C9
:106EF4003AD902F083FFD8B11C4B1D491D601D4BCC
:106F0400DFF884801C701C4B00221E600023C1E942
:106F140000231A49C1E90023013CE4B200260327F7
:106F2400FF2C0CD1164A1748002100F0FDFA03E0AB
:106F340002F02CFF0028DFD002B0BDE8F08123B2BC
:106F440005EBC30201A992788DF8052015F83300EA
:106F54008DF8066042468DF8047002F059FF013C3A
:106F6400E4B20028DCD0E7E70720E5E7502800205A
:106F740040280020182800201C2800204828002031
:106F84003D6D02003CFA0200416E020070B50B4DEB
:106F94002A681AB90A49BA2004F0B6FA094E00243C
:106FA4003378A34201D8002070BD2B68012113F867
:106FB400340002F0BDFF0134F2E700BF5028002086
:106FC400D9F902001828002082B001238DF8073077
:106FD4009DF80730114B1860596044F20101884252
:106FE4009A6012D044F20201884206D1DA60DA686B
:106FF40012889A61DA685268DA6172B69DF80730CD
:10700400002BFBD162B602B070471A611A6992680C
:107014005A611A6912689A611A69ECE754280020C7
:1070240000B583B002900091019244F201007146D0
:107034006A4600F003F803B000BD00002DE9F043F8
:10704400064685B00F46154672B6FFF74DFDFFF7AD
:107054007FFB0028FBD1DFF8B480B8F8004041F290
:10706400010324049E4244F0010428D007D8012ED1
:1070740014D03A461E492046FFF7E4FC12E044F2DD
:1070840001039E421DD044F202039E42F1D12B889B
:107094006A6818492046FFF7DFFC03E016492046DA
:1070A400FFF7CCFC154B1B68DB0700D500BE2A4656
:1070B4003946304605B0BDE8F043FFF785BF1049B7
:1070C400EDE7D5F80890484602F01CFA2B680297C1
:1070D40001936B6800930B4903464A462046FFF729
:1070E400D1FCB8F800000849000440F00100D7E7DB
:1070F400D3FA02007FFA020040FA0200F0ED00E049
:107104005DFA020099FA0200BFFA02002C22002064
:10711400094A537891780133DBB2994208BF0023BE
:10712400117899421FBF03705078182303FB002085
:1071340014BF0430002070477428002073B505463E
:1071440002A8002400F8014D0E4600F061FA0DF18A
:107154000600FFF7DDFF90B106700A4B9DF806208C
:1071640045605A709DF8070000F082FA24B9064B76
:107174004FF48012C3F80021204602B070BD0424ED
:10718400F0E700BF7428002000E100E0024B4FF458
:107194003C6043F001031847F0FA020038B50C4B89
:1071A4000C4C4FF40032C3F8802001254FF4803397
:1071B400C4F84833C4F808336560FFF7E7FF064BAB
:1071C400A56000241C60FFF7E1FF044B1C7038BD70
:1071D40000E100E0001001409029002081290020F6
:1071E400F8B51F4B1F491B680025C1F84051C1F871
:1071F4004451C1F84851C1F84C51C1F80051C1F88B
:1072040004514BB3D1F8044517490968641A24F0B2
:107214007F442F461A68A24209D8A41A15441A7C3E
:10722400DE691AB11F74D3E905209047AEB90F4B3C
:107234000F4A197813788B4205D10133DBB2022B44
:1072440008BF0023137012780A4B43F822500A4BEC
:107254004FF48012C3F80021F8BD3346DAE700BFCB
:107264009429002000100140902900208C2900203E
:107274008D2900208429002000E100E02DE9F74F4A
:107284009E4A9F49137809789E4D99423CD0013318
:10729400DBB2022B08BF002313709B4912789B4B6F
:1072A4000F6853F822003B1823F07F4300220B6041
:1072B4002B6816461446944613B942B12B6006E077
:1072C400196881420ED902B12B60091A19604FF076
:1072D40001082B68DFF83CA200930027BEB9DFF851
:1072E4003CB260E0401A0C44D968C3F800C0D3F83B
:1072F4001CE031B13A1922F07F42C3E90121DE6179
:107304001E4601227346D7E70026B046E1E734461D
:10731400F6697D4A63681268DFF804C2A068991AA6
:1073240021F07F41614500F2A580014421600122E2
:1073340022742A680023C4E90133E361002A40F07F
:10734400A2802C60CAE75A1C9BF80210D2B2914268
:107354008BF8002004BF00228BF80020182202FBC7
:1073640003B32A6819799C68022974D003297ED052
:10737400012918D1217CB1B9DA6862601A69A26066
:107384005A699B69A361624BE2601B78002BC0D0F1
:107394006160BEE79C4200F093809946DB69002B54
:1073A400F8D1002323749BF800309BF801209A4203
:1073B400C9D12B682FB9009A934202D1B8F1000FBA
:1073C40043D0002B79D0D3F800A0524D4E4BD5F8C2
:1073D40004751C68DFF84C813E1B98F8003026F0D9
:1073E4007F4603369BB94FF48033C5F84433C5F860
:1073F4000433494B4FF400324FF00109C3F88021A4
:107404001A60C5F80090FFF7C1FE88F80090B245F5
:107414002CBF5444A41924F07F44C5F84045D5F842
:107424000435DB1B23F07F43E41B033324F07F4448
:10743400A3420AD9D5F80435C5F84035FFF7A6FEAE
:10744400354B4FF40032C3F80021314B00221A703F
:1074540003B0BDE8F08F13469146A0E71174D269DA
:107464000123002AFAD1002B9DD02A609BE7002338
:107474001946F6E7D31A23F07F43834234BFC31A75
:107484000023236053E721681368994213D8591ADB
:107494001160E26155E7091AD8691A4638B1034602
:1074A40018688842F7D3401A1860184613462160BA
:1074B400E061DC6112E71346F2E7FFF76FFEC4E711
:1074C4004C450DD1D3692B6053B90F48019201216A
:1074D400CAF8081003600E4B1970FFF757FE019AA3
:1074E400E1692368C9F81C1011B1086803440B60F2
:1074F4002B689A4218BF012753E700BF8C2900204C
:107504008D2900209429002090290020842900201E
:10751400802900200010014000E100E074280020D0
:10752400FEFF7F0081290020074B9B784BB132B1CD
:1075340028B10368187C20B959745A617047072030
:1075440070470820704700BF742800202DE9F743D6
:107554001D4FBB7805460E4690469BB390B3042955
:107564002ED9436973B3437C02A80024012B00F88D
:10757400014D0CBF8946A14600F04AF80DF1060002
:10758400FFF7C6FDD0B101230370104B4560D3F85B
:107594000435C0E90498C0E902369DF806307B70D2
:1075A4009DF8070000F064F824B9094B4FF48012E9
:1075B400C3F80021204603B0BDE8F0830424EFE7BC
:1075C4000724F7E70824F5E7742800200010014099
:1075D40000E100E0064A92783AB130B1426922B142
:1075E400002202740221FFF7A9BD0820704700BFE2
:1075F40074280020EFF30583C3F308032BB9EFF3DA
:107604001480C04300F0010070470120704700005F
:1076140070B50446FFF7EEFF012803D0104943205C
:1076240003F072FFEFF3108672B60E4A90680123DE
:1076340098B993600C4B0D4DD3F88010294011601C
:10764400C3F88050D3F8841051604FF0FF32C3F870
:107654008420207006B962B670BD2370FAE700BFBB
:10766400F6FA02009829002000E100E0FC06FFBDC4
:1076740010B50446FFF7BEFF012803D00949512085
:1076840003F042FF084B9A685AB154B9EFF31082E1
:1076940072B6064918680860586848609C6002B968
:1076A40062B610BDF6FA02009829002000E100E05D
:1076B40070B5064E0546002456F824300BB1284612
:1076C40098470134042CF7D170BD00BFB0290020C5
:1076D400033080B240F2FD33984230B51FD8124BCC
:1076E4001A783AB91C895D892C440444A4B2B4F5CF
:1076F400806F0AD31A7DA2B99A8BDC8B2244024490
:1077040092B2B2F5806F0CD201220A801446142280
:1077140002FB04335A8910445881002030BD0920EB
:10772400FCE70720FAE700BFE42900200B4A0C4BD2
:107734005188142000FB0131CB6833B90420496817
:1077440010700122074801F085BB05230649137018
:1077540002238B80012200230968F3E7C829002053
:10776400E4290020582200209C2A002007B5002389
:1077740005490093054A09680548082301F0E6FA1B
:1077840003B05DF804FB00BF9C2A002068FB0200E4
:107794005822002007B50023009301460823034A1A
:1077A400034801F0D3FA03B05DF804FB60FB020068
:1077B4005822002013B500230C46009301460423ED
:1077C400074A084801F0C2FA38B9074B142202FBF1
:1077D40004340123237402B010BD0E20FBE700BF64
:1077E4005CFB020058220020E429002037B50A4837
:1077F4000A4B42689C881968538803250333057033
:107804009BB2002000909B0001EB8401044801F02E
:107814009DFA03B030BD00BFC82900209C2A002077
:107824005822002010B50146044800F09CFE1C229A
:107834000446002107F070FE204610BD8C22002073
:107844004388033300EB8303994209D382884FF6BC
:10785400FF739A4206D00088B0FA80F0400970475E
:1078640002207047012070472DE9F8430223DFF816
:1078740060800B800D46174600F5805600F1080421
:107884004FF00109B4420FD2236801330CD03146C2
:107894002046FFF7D5FF48B10FB187F800900228C2
:1078A4000BD14FF480632B80BDE8F883A368D8F82C
:1078B4000020934201D9C8F800302B886288033332
:1078C40013442B806388033304EB8304DAE700BF9B
:1078D400DC290020144A142303FB002070B50B6834
:1078E40044680D4604F580569BB15C88033403EB71
:1078F4008404B4420BD22368013308D031462046B5
:10790400FFF79EFF012809D005D30228F1D10020FA
:1079140003E00834EDE72C60012070BD6388033375
:1079240004EB8304E5E700BFE4290020436873B552
:1079340005460C466BB3254AD1688B4229D312699C
:10794400934226D813F0030223D1214900890989DF
:1079540088421ED12868996888421AD11D4948680E
:10796400834203D900F5805083420ED38A6993423F
:107974000DD902F58052934209D2012323800020BD
:10798400B0FA80F0400902B070BD1346F6E70A2051
:10799400F6E7002323801E462388012B01D900200B
:1079A400F1E7019601A92088FFF794FF18B923880D
:1079B40001332380F0E7019B2A6899689142F1D151
:1079C4006B60034B1B892B81DDE700BF582200202D
:1079D400C8290020E42900202DE9F8431C461E4B49
:1079E4001B7806460F461546002B30D0002A30D0AF
:1079F4007CB3DFF86C804FF01409A388012B01D904
:107A04000A201AE009FB03F318F80330BBB1A3887A
:107A14000133A380F1E723681EB19988328891422B
:107A24000DD11FB119883A88914208D19A68C5E9E5
:107A340000230A4B1B892B810020BDE8F8832146D3
:107A4400A088FFF747FF0028E5D12060DFE7022088
:107A5400F3E70520F1E700BFC0290020C829002072
:107A6400E429002008B5074B191D5888FFF732FF99
:107A740018B1BDE80840FFF7B9BEBDE80840FFF7FC
:107A840055BE00BFC82900202DE9F04FDFF8B482AD
:107A9400DFF8B49289B006464746D8F800302BB9CF
:107AA40049469F4800F099FDC8F800003B6823B997
:107AB4009C4940F2825003F027FD3D6829784B1E13
:107AC400052B00F21181DFE813F006007500750044
:107AD400050105015E0126B1934B00225A60012481
:107AE40024E02B79032B1DD8DFE803F01502414C69
:107AF4008E490B78022B084630D00B7D022B4FF0B9
:107B040001032DD114225343C2180020C8545068D5
:107B1400FFF740FE03E001232B71FFF727FE002847
:107B240000F0D280804B00225A600E2414220021DF
:107B340003A807F0F1FC41F61D539C4208BF002442
:107B44003B6804941A78023A042A00F2D581DFE8EB
:107B540012F0B601C201ED01F501FC010023D1E7E9
:107B6400714A13700023536041F61D54DEE77049D7
:107B74007048002302222B718A800122096801F0D7
:107B840069F9CCE76A4C00262E712068674DFFF72F
:107B940001FE694BD4F800C05A8814235343EA18F1
:107BA400EE5451682160A188C2F804C011810222F8
:107BB400A280B4E7B5F814A0AA7DDFF870B1AEB125
:107BC400022AEB8806D9142101FB0AB1DA1C0889C0
:107BD40002440A81142202FB0ABAC3F57F43BAF8AD
:107BE4000A20FD331344AAF80A3078E7142303FB70
:107BF4000AB318895C6804EB8004062A05D8DFE818
:107C040002F0264C34421C5866000F24AA7DEB88EF
:107C1400022A06D9142101FB0AB1DA1C088902449C
:107C24000A81142202FB0ABAC3F57F43BAF80A2078
:107C3400FD331344AAF80A3078E74048404900234A
:107C44004360AB690360FFF771FE00285AD002233A
:107C5400AB75002300930423EA182146354801F04C
:107C640075F8002830D00E24D0E72B69002B0CBF08
:107C740001230323AB750023009305F10C020423B5
:107C840004F10801EAE70123AB750022EB880092B6
:107C94009B002A6904F10C01E0E7032914BF0623C1
:107CA4000523AB7500230093042305F10802E118B2
:107CB400D4E70623AB75224B1988204B5868FFF78D
:107CC40079FD04460028A1D109B0BDE8F08F41F642
:107CD4001D549BE7002E7FF402AF2B79012B35D086
:107CE40004D3022B3FF440AF0F241FE702232B7170
:107CF4000DF10A01EB68039303A8CDE90466FFF7CD
:107D040015FE08B90A2411E70498BDF80A108388FF
:107D1400EB8003882B81FFF74DFD044629E000BF6B
:107D24008C22002070FB0200C0290020E4290020DE
:107D34009C2A002058220020C8290020A4290020C1
:107D4400A82A0020E0290020D8290020DFF81CA25E
:107D540003AA53463146A81DFFF73EFE044660B908
:107D6400BAF804100498FFF725FD04460A2C3FF4E2
:107D7400FBAE002C7FF4DAAEA6E70822314650466B
:107D840007F0CAFBF2E7002E7FF4A9AE714B1A7B11
:107D9400B2B11E731A78013A062AA5D801A151F886
:107DA40022F000BF4F7E0200757E0200937E020027
:107DB400997E0200ED7C02009F7E0200B57E0200E7
:107DC4001A78072AE6D801A151F822F0F17D0200C1
:107DD400997D0200997D0200177E02002B7E02002D
:107DE4004B7E02004B7E0200137E02001A895A4920
:107DF40001321A8100225A801A730A78B2FA82F286
:107E040052099A720A7DB2FA82F25209DA72012296
:107E140007E0524958688A884088033202448A80BD
:107E240002221A70B6E74C4C5A884C49142505FBBB
:107E340002420868546850608888108102228A804F
:107E44000C600622EDE70722EBE79A7A32B9DA7A78
:107E54008AB900221A705A805A6085E63E49002287
:107E64009A72CA68002AF2D1097C0029EFD05A809C
:107E7400FFF7F8FD51E70022DA72374A116A002948
:107E8400E7D192F82420002AE3D00122EFE7FFF79C
:107E9400ADFC42E7FFF74AFC3FE706221A702E4A80
:107EA4005B88142101FB03235868FFF773FC34E754
:107EB40007221A7000225A60FFF758FC2DE70122AE
:107EC4008DF80C201A89ADF818209A88DB68ADF873
:107ED4001A20059310E002228DF80C201A89ADF8BF
:107EE40018209A88ADF81A20DA689B7D05929A1FAB
:107EF400534253418DF81C3003A8FFF7D9FB0023EC
:107F0400494617483B6000F093FB164B1B6823B9A6
:107F1400154940F27A2003F0F7FA0121114800F0E4
:107F24003AFC00283FF4D0AE0026B6E503228DF8D3
:107F34000C20DA88ADF818201A89C7E70422DB88F8
:107F44008DF80C20ADF81830D6E705238DF80C30E9
:107F5400D2E700BFC8290020E42900209C2A002081
:107F64008C220020982A002070FB0200AC2A0020FA
:107F74004068FFF789BD000008B50121044800F0FE
:107F8400F4FB18B9BDE80840FFF77EBD08BD00BF8B
:107F9400982A00202DE9F3419846354B1B78064674
:107FA4000D46002B5BD000295BD009884FF6FF7388
:107FB400994258D06B88002B55D06B689B0754D1DD
:107FC4004AB92F890DF102013846FFF781FB30B120
:107FD40002B0BDE8F08113885788ADF8023001A8DB
:107FE400FFF720FC044658B9BDF80230214A142199
:107FF40001FB032358890338C01B58810820E7E795
:1080040000238375BDF8023083826B68036180F8B6
:1080140000800121184800F0B3FB2B882381B8F1BC
:10802400030F6B88A38004BF0423A3754FF00005DE
:1080340008BF3368E06008BFA361E780658101A9D8
:108044000E4800F0BAFA36B1E36833600C4B756041
:108054001B89B5723381FFF78FFF0020B8E7022038
:10806400B6E70520B4E70420B2E70320B0E700BF79
:10807400C0290020E4290020DC2900208C220020D3
:10808400C829002008B5084B1A68042A09D01968C1
:10809400064A42F821000121184600F071FB002035
:1080A40008BD0C20FCE700BFA42A0020B029002052
:1080B4002DE9F04F89B01422002103A807F02CFA0F
:1080C4007B4A137803F0FF01009190463BB103A86B
:1080D400FFF7EEFA0026304609B0BDE8F08F101D18
:1080E40000F064FB05460028F4D14FF010234FF054
:1080F40080525B6911695269DFF8DCA1581C08BF22
:1081040002FB01F3CAF810300022A3F54053694979
:10811400CAF80C30504600F0EBFD06460028DAD1D0
:108124001C238C226449654800F0E8F93746B346BD
:108134004FF003093446CDF804A0019BD9680BEB3A
:10814400010002465BF80110002835D05C4B9942CF
:1081540032D141685B4B994215D0013399422BD1FE
:10816400009BDFF86CA1002B59D100225649CAF8B4
:108174000000FFF779FBBAF80420022A14BF082292
:10818400042217433AE051494FF0140C0CFB04FC51
:1081940001EB0C024FF0000E01F80CE050600CF102
:1081A40010020CF1080C0A446144FFF75DFB47F030
:1081B40002070134A4B221E000F5805C11680131AA
:1081C40067D104329445F9D1414A116829B9022191
:1081D40001231060918000930EE0142262433B4B14
:1081E4004FF0020E991803F802E03A4A48605480AE
:1081F4000134A1F808E0A4B247F001070BF5805B55
:10820400BBF5405F99D1B9F1010F88BF3D46EDB28E
:10821400022D02D0062D12D0DDB90B265BE72B4BC5
:108224001422624399184FF0020C03F802C001347F
:10823400DAF800204A60A1F808C0A4B295E7012347
:1082440088F8003003A80023C8F80430FFF730FA98
:1082540041E702A8FFF7E6FAC8B10123013D037024
:108264000A2D09D8DFE805F00608060807080708FC
:108274000F110F000023037102A9104800F09DF9AB
:10828400FFF77AFE27E70323F5E70223F3E708263F
:1082940021E70E491422624301EB020C09F1FF3974
:1082A400CCF8040003201FFA89F9885481E700BF41
:1082B400C0290020D4FE02000C2A00208C220020B9
:1082C400DEC0ADDEFE011EF1A02A0020E42900205C
:1082D4009C2A0020C82900205822002073B50D468E
:1082E4000446C8B1C1B10DF10601FFF71FFBA8B1E7
:1082F4000B4BBDF806006668142202FB0030012116
:108304000C3000F03DFA63682E600C336B6001237F
:10831400A372002002B070BD0520FBE70A20F9E734
:10832400E429002013B50446A8B10DF10601FFF7B6
:10833400FDFA90B10B4ABDF80630142101FB03236A
:10834400DA6862B1A27A52B1DA680020013ADA60DE
:10835400A07202B010BD0520FBE70A20F9E7062051
:10836400F7E700BFE42900200B4B1B7837B5044620
:108374000D4663B168B10DF106012846FFF7A8F96F
:1083840018B9BDF806302380658003B030BD0220E3
:10839400FBE70520F9E700BFC0290020104B1B783C
:1083A40010B5B3B1B8B10288022A16D80D49438872
:1083B400142404FB02129C1C51898C420DDAC3F56F
:1083C4007F43FD330B4453810023038043801846CD
:1083D40010BD0220FCE70520FAE70420F8E700BFFF
:1083E400C0290020E429002002230022FFF7D2BD87
:1083F40012B10223FFF7CEBD0520704718B1032345
:108404000022FFF7C7BD052070470000104B1B7802
:1084140013B50446ABB14FF6FF73984213D001A8CD
:10842400FFF700FA88B10523037001230371C480A8
:1084340001A9084800F0C1F8FFF79EFD002002B032
:1084440010BD0220FBE70420F9E70820F7E700BF8E
:10845400C02900208C2200200E4B1B7807B5A3B145
:1084640001A8FFF7DFF990B10623037001A90A48B8
:1084740000F0A3F8094B1A780AB101221A73FFF726
:108484007BFD002003B05DF804FB0220FAE708201E
:10849400F8E700BFC02900208C220020C829002052
:1084A40007B5ADF8060002A820F8041D01460DF139
:1084B4000600FFF791FA03B05DF804FB13B502ACB4
:1084C400134624F8020D0A4600202146FFF784FAD9
:1084D40002B010BD13B502AC134624F8020D0A46CF
:1084E40020460021FFF778FA02B010BD20B119B17F
:1084F40003680B60002070470520704710B561B118
:10850400B2FBF3F403FB1424A4B244B9C0E900148D
:1085140084608281C381204610BD0E20FCE70920BF
:10852400FAE782B050E8022FC188B2EB324F4FF025
:10853400000317BF92B241EA014142EA014104E05B
:108544004268B2EB324F08BF012340E80212002A0E
:10855400E8D18DF807309DF80730002B0CBF1120AF
:10856400002002B0704737B550E8013F9DB2C4897E
:1085740025448489A54228BF2D1B0489A54202BF36
:10858400BFF32F8F002207E0C5EA030540E801543A
:10859400002CE9D14FF001028DF803200193019BD7
:1085A4009DF803200B6002F0FF0322B10B880068E2
:1085B400184403B030BD1846FBE70A884B889A423A
:1085C40009D150E8012FC2EA024240E80123002BFE
:1085D400F7D1012070470020704737B550E8023FBB
:1085E4001FFAA3F5C488A54202BFBFF32F8F002250
:1085F4000DE0C48925448489A54228BF2D1BC3EA04
:10860400054540E80254002CE8D14FF001028DF8F2
:1086140003200193019B9DF803200B6002F0FF03EC
:1086240022B14B880068184403B030BD1846FBE7FC
:108634000A884B889A4209D150E8022FC2EA2242A2
:1086440040E80223002BF7D1012070470020704737
:1086540001F01F024B090121914000EB830000F05F
:1086640063B84B0910B501F01F040121A14000EBD0
:10867400830000F04EF8E04000F0010010BD01F06E
:108684001F0301229A404B0900EB8300D14300F001
:1086940061B84B0901F01F0150F82300C84000F0F5
:1086A400010070472DE9F0474E1E760980460F46BB
:1086B4000136002558F8254008EB850AE44394FA6E
:1086C400A4F4B4FA84F44FEA4519202C06D10135F8
:1086D400AE42EFD83C462046BDE8F0874C44A74262
:1086E400F5D921464046FFF7BCFF0028F3D0DAF85D
:1086F4000040E44394FAA4F4B4FA84F4E5E750E8BF
:10870400002F0B4640E8003C9CF0000FF7D11046C8
:10871400704750E8002F42EA010340E8003C9CF017
:10872400000FF6D11046704750E8003F43EA0102BB
:1087340040E8002C9CF0000FF6D11046704750E83A
:10874400002F02EA010340E8003C9CF0000FF6D140
:108754001046704750E8003F03EA010240E8002C4D
:108764009CF0000FF6D11046704750E8002F02EB42
:10877400010340E8003C9CF0000FF6D1104670471E
:1087840050E8003F03EB010240E8002C9CF0000F8E
:10879400F6D11046704750E8003FA3EB010240E8D1
:1087A400002C9CF0000FF6D1104670470121FFF712
:1087B400B0BF0121FFF7B8BF0021FFF7C0BF000021
:1087C40010B50446002834D003681BB91A49FF20A9
:1087D40002F09AFE636823B917494FF4807002F0DF
:1087E40093FEA36823B9144940F2011002F08CFEF1
:1087F400E36823B910494FF4817002F085FEA38A1F
:1088040023B90D4940F2031002F07EFED4E901239E
:1088140021689B1ADBB20A60013BDBB2FF2B2268A2
:1088240002D10020107110BD1168481C10600B703B
:10883400F2E70E20F7E700BFD5FB020037B5054687
:1088440020B913494FF4927002F05EFE02A800248E
:1088540000F8014DFEF7DCFE2A686B681168994246
:108864000ED9481E106011F8014CEB68A98A01FB6F
:108874000434AB6811791B1ADBB2994238BF137107
:108884009DF80700FEF7F4FE204603B030BD00BF9C
:10889400D5FB020037B50C46054620B9104940F215
:1088A400471002F031FE24B90D494FF4A47002F0D0
:1088B4002BFE02A8002300F8013DFEF7A9FE2A685A
:1088C4001368591C1160EA68A41AAA8AB4FBF2F46A
:1088D4001C709DF80700FEF7CBFE03B030BD00BF4F
:1088E400D5FB020010B5044618B90649312002F040
:1088F4000BFEA2682AB163692168206998470023A6
:10890400A36010BD35FC02000EB433B5059D0446CA
:1089140018B91249422002F0F7FD63691BB90F49E7
:10892400432002F0F1FD23681BB90C49442002F0F6
:10893400EBFD63681BB90949452002F0E5FD3DB133
:1089440002AA06AB42F8043D2946204600F06EF820
:1089540002B0BDE8304003B0704700BF35FC0200F0
:10896400826830B40468551C8560A154D0E9013292
:108974009A4202D330BCFFF7B5BF30BC7047000049
:108984002DE9F84F9946DDE90A43174682468846A1
:108994000A460126BA420FD24E4538BF4E4613F05E
:1089A400010B01D164B900240125B9F1010F1AD9D1
:1089B40009F1FF397D43F8E7B2FBF7F20136E9E745
:1089C4009B070ED5B9F1000F0CBF30252025A64218
:1089D400EAD2013C29465046FFF7C2FF002CF6D1EB
:1089E400E1E72025F3E7B8FBF5F39F42E2D9DFF88E
:1089F4003890B8FBF5F3504619F8031005FB1388BB
:108A0400FFF7AEFFB5FBF7F5002DF2D1BBF1000F78
:108A140002D00CB1A64201D3BDE8F88F2021504604
:108A2400013CFFF79DFFF4E78BFC02002DE9F74FB3
:108A34000E469046054620B9AC494FF49F7002F0AB
:108A440063FD6B6923B9A9494FF4A07002F05CFD82
:108A54002B6823B9A54940F2411002F055FD6B681B
:108A640023B9A2494FF4A17002F04EFD002E00F08C
:108A74003A8116F8011B002958D0252940F0D180ED
:108A8400002702E047F001071646324612F8013B80
:108A94002D2BF7D0302B04D02B2B05D147F0040716
:108AA400F2E747F00207EFE700242A2B06F1010260
:108AB4001BD1D8F80030191D1B68C8F800101C44DD
:108AC400164633782E2B1CD101364FF0000A31465E
:108AD40011F8012BA2F13000092814D80A2303FB52
:108AE4000A23A3F1300A0E46F1E712F8013CA3F180
:108AF40030010929E5D80A2101FB0434303C16462B
:108B0400D3E74FF0000A324612F8011B01F0FB00D4
:108B140068281646F8D0692916D054D8582970D038
:108B24000ED825297DD03378002BA2D12B7B002BA6
:108B340000F0D980284603B0BDE8F04FFFF7D2BE5D
:108B4400632968D06429EED1D8F80020D2F80090C7
:108B5400111D89EAE972C8F80010A2EBE9724FF01E
:108B6400010B092A61DCD34538BFD3462CB1B9F1D6
:108B7400000F01DB790700D5013CBA0702D5BAF131
:108B8400000F04D0FB0702D4002C54D10024B9F107
:108B9400000F58DAC9F100092D212846FFF7E0FE3D
:108BA40007F00302022A05D1BAF1000F02D1002C0A
:108BB4004DD10024CDE9004753460A2249462846B0
:108BC400FFF7DEFEAFE7732954D016D87029AAD177
:108BD400D8F800301A1DC8F80020302128461C6837
:108BE400FFF7BEFE78212846FFF7BAFE00220823CD
:108BF400CDE9003221461022E1E775292FD07829EA
:108C040091D1D8F800100A1DC8F80020CDE900471A
:108C1400534610222CE0D8F800301A1D1978C8F8F1
:108C240000202846FFF79CFE7DE70A230BF1010B89
:108C340092FBF3F295E7A345A9D220212846013CF3
:108C4400FFF78EFEA0E77807AAD52B21A5E7A34559
:108C5400B0D230212846013CFFF782FEA7E7D8F8BE
:108C64000010CDE900470A1DC8F8002053460A2227
:108C74000968A4E7D8F800301A1DC8F80020F907DD
:108C8400D3F8009012D54F46A7EB090B17F8011B38
:108C940041B9A345BFF447AF20212846013CFFF763
:108CA4005FFEF6E72846FFF75BFEEDE7B9F1000F3C
:108CB40017D0484606F063FC0746BC4200D954B9B5
:108CC40009F1FF3919F8011F00293FF42CAF284698
:108CD400FFF746FEF6E720212846013CFFF740FE59
:108CE400EBE74F46E9E703B0BDE8F08F9BFC0200D9
:108CF40007B50B4678B9104B104A18880E23009319
:108D04000F4B00040F4940F00100FDF7AFFE0E20A9
:108D140003B05DF804FB3BB9074B0B4A18880E23DC
:108D240000930004064BEDE703601B68114603B093
:108D34005DF804EB184700BF44220020A5FD0200A3
:108D4400F8FC0200AAFD020021FE02002DE9F34115
:108D540078B9354B354A1888354B0E2400040094F5
:108D6400344940F00100FDF781FE204602B0BDE821
:108D7400F0813AB92C4B304A18882D4B0E2400044C
:108D84000094EDE7D0F800C0BCF1000F07D1264BEA
:108D94002A4A1888264B082400040094E0E73BB9CB
:108DA400214B274A1888224B092400040094D7E752
:108DB4004768D7F80480B3FBF8F708FB17373FB1CF
:108DC400194B204A18881A4B092400040094C7E759
:108DD4008F0707D0144B1C4A1888154B1024000425
:108DE4000094BDE712F0030F07D00F4B174A188801
:108DF4000F4B102400040094B2E7C768B9420BD3A8
:108E04004C1E05691C44AC4206D8DCF80C40A44650
:108E140002B0BDE8F0416047034B0D4A1888044B8B
:108E24001024000400949BE744220020A5FD0200C6
:108E34000AFD0200AAFD020027FE02001BFE02003A
:108E4400DAFD02002DFE020057FE02006FFE020052
:108E540092FE0200F7B570B9254B264A1888264BB6
:108E64000E2400040094254940F00100FDF7FEFDA6
:108E7400204603B0F0BDD0F800C0BCF1000F07D10C
:108E84001B4B1F4A18881C4B082400040094EAE773
:108E94003AB9174B1B4A1888174B0924000400944D
:108EA400E1E74768D7F800E00EF1FF370F4207D03B
:108EB4000F4B154A1888104B102400040094D2E775
:108EC400C768B9420CD34C1E05690EFB0244AC4280
:108ED40006D8DCF81040A44603B0BDE8F040604773
:108EE400034B0A4A1888044B102400040094BAE780
:108EF40044220020A5FD02001DFD0200AAFD02007F
:108F04001BFE0200DAFD020030FD020056FD0200E5
:108F14002DE9F04108B10368C3B90E4E0E4B14227B
:108F24009B1B0024B3FBF2F3374602FB03F5A54277
:108F340001D1002008E03B5930190BB91434F6E78D
:108F4400DB6998470028F9D0BDE8F081DB69BDE80A
:108F5400F0411847582200206C22002029DF704776
:108F640028DF704770B503689D6886B004460E46D6
:108F74006DB114220021684606F0CEFAA368059369
:108F8400237901962BB1012B0DD06846A84706B072
:108F940070BD01238DF8003023690293E3680393C5
:108FA40063690493F1E702238DF80030E3681B033F
:108FB4000293F5E70846704700207047024B187A81
:108FC400003018BF01207047402B0020034B187A53
:108FD4000122B0FA80F05A7440097047402B0020F7
:108FE40008B510461A4606F06EFA002008BD0000C7
:108FF40008B514220021044806F08EFA0348FFF74E
:1090040090FA002008BD00BF402B0020A0220020C1
:1090140010B5094C094B43602046FFF7C7FB40B924
:1090240005F0ECFF1C2320748C2205490548FFF74A
:1090340065FA002010BD00BF402B0020C8FE0200CE
:10904400B42A0020A022002070B5244D244E2B7A8F
:109054002C463BB923492448FFF7BFFA306008B9CE
:10906400686070BD0223237233681A7972B1012AD1
:1090740024D018460321FFF775FF00232372636091
:1090840018491948BDE87040FFF7D2BAD3E9052062
:10909400121AB2F5805F28BF4FF48052D3E903154A
:1090A4009208012A014438BF01222844FFF756FFE1
:1090B40050B11128DDD101232372D2E7D3E9030291
:1090C4001044FFF74DFFF3E7237C002BC9D1014681
:1090D400BDE87040022000F009B800BF402B00201A
:1090E400582B0020542B0020A022002038B5831ECA
:1090F400012B45D8234C237A002B41D0022B09D1D4
:10910400032830D0204B1B680022E2601A793AB160
:10911400012A22D0637C7BBBBDE83840FFF794BFB3
:10912400D3E905128D1AB5F5805F94BF521902F583
:1091340080529A619142EDD102284FF0000308BF9A
:1091440019462372104B18BF0D211868FFF70AFF48
:109154000E490F48FFF76CFADCE71A6901321A610D
:109164005B699A42E7E7E3680133082B01D8E360BF
:10917400D0E70023E360DFE7BDE8384005F02EBF09
:1091840038BD00BF402B0020582B0020542B00205A
:10919400A022002000F0FD03012B08D1044B002283
:1091A4005A74421E504250411874FFF74DBF704725
:1091B400402B002010B5064C201DFFF7F7FA28B904
:1091C400637C1BB9BDE81040FFF73EBF10BD00BF74
:1091D400402B00202DE9F34180460D460F4801A99C
:1091E40016461F46FFF7BFF90446A8B11C2200210A
:1091F40006F092F92D0B0123237101A9C4F8008014
:10920400A760E56066610548FFF7D7F9FFF7D2FF6D
:10921400002002B0BDE8F0810420FAE7A02200207B
:109224002DE9F74381468846104801A917461E4692
:10923400FFF799F90446B0B11C22002106F06CF93D
:1092440000250A9BA36001A92571C4F80090C4E914
:10925400037866610548FFF7B0F9FFF7ABFF2846CE
:1092640003B0BDE8F0830420FAE700BFA022002089
:109274002DE9F84FB0F806A09DF828901746033260
:109284001C1D13444279B4FBFAF55344B3FBFAF3BF
:10929400DBB29A42064688460AFB154403D21449B7
:1092A400BA2002F031F93DB9AAEB040BBB4528BF43
:1092B400BB4627B9BDE8F88F3668013DF3E70434AF
:1092C40008EB050034445A46B9F1000F0DD021468D
:1092D400A7EB0B0706F0F7F8BA455D443668D346AA
:1092E4004FF0000428BFBB46E3E701462046EFE702
:1092F40002FF0200FFF764BAF8B546790146721E10
:109304000546002393422D6803D30024A64202D8C5
:10931400F8BD0133F6E70F682846FFF7BBFA0134BE
:109324003946F3E72DE9F843868ACD1C0746FFF753
:1093340085FA043E35440446B5FBF6F5F0B14FF426
:109344008073EDB28380C680013D076081464FF093
:109354000008A84512D23846FFF770FA064648B10D
:1093640063790133637108F10108C9F800000760EB
:109374008146EEE72046FFF7BFFF34462046BDE8AE
:10938400F88301210430FFF7FBB910B5012104462D
:109394000430FFF700FA10F0FF0F04D12046BDE8B7
:1093A4001040FFF7A9BF10BD13B500240094FFF7C8
:1093B4005FFF02B010BD13B501240094FFF758FFFE
:1093C40002B010BD41DF7047064B10B500241C707D
:1093D400054B1C60BFF35F8F0449054800F03EF85D
:1093E400204610BD642B0020682B0020D4FF02000F
:1093F4005C2B002013B502A8002300F8013DFEF702
:1094040007F9F1EE104A24F09F03E1EE103ABFF39E
:109414005F8F104B4022C3F884219DF80700FEF7AC
:1094240027F9630703D00C49762002F06DF805F0A4
:10943400E5FD58B1FFF7C6FF30F0020304D006493A
:1094440040F2591002F060F802B010BD20BF40BFD6
:1094540020BFF9E700E100E06FFF020038B50D46D8
:10946400044618B90949502002F04EF81DB90749BD
:10947400512002F049F82B686A686360934208BF80
:109484000023256008BF636038BD00BFE9FF020008
:1094940010B5044618B90B49632002F035F8236867
:1094A4001BB90849642002F02FF8636843B12268AD
:1094B400916852680B449342636004BF0023636065
:1094C40010BD00BFE9FF02000D4930B5A1F594724B
:1094D4000225914201D800200EE08B1ADB1093FB89
:1094E400F5F302EBC30452F83330834205D802D2B9
:1094F40004F10802EDE7606830BD2146E9E700BFEA
:10950400A001030008B5FFF7DFFF024B002808BFE6
:10951400184608BD620003000C4B1B78062B10D1C3
:109524000B4B1B681A070CD10A4B186800F0F003A8
:10953400302B08D000F0E000A0F14003584258411D
:109544007047002070470120704700BFE00F00F013
:10955400E40F00F0E80F00F0094B1B78062B0CD148
:10956400084B1B681A0708D1074B186800F0F00075
:10957400A0F130035842584170470020704700BFA3
:10958400E00F00F0E40F00F0E80F00F008B5FFF77B
:10959400C3FF28B17D4B7E4A1B68C3F304231360C9
:1095A400FFF7DAFF10B17B4B7B4A1A60FFF7B4FF79
:1095B40028B17A4B7A4A1B68C3F342331360FFF72E
:1095C400CBFF20B1774AD36823F08073D360FFF7D1
:1095D400A3FF40B14FF080430022C3F80C21C3F82D
:1095E4001021C3F83825FFF7B7FF10B16E4B0322E3
:1095F4001A60FFF7B1FF40B16C4B05221A600122DB
:109604009A6700229A603F225A60694B1B78062BA6
:1096140050D1684B1B6819074CD1674B1B6803F08A
:10962400F003502B46D14FF08052644BD2F804140F
:10963400C3F82015D2F80814C3F82415D2F80C1472
:10964400C3F82815D2F81014C3F82C15D2F8141442
:10965400C3F83015D2F81814C3F83415D2F81C1412
:10966400C3F84015D2F82014C3F84415D2F82414D2
:10967400C3F84815D2F82814C3F84C15D2F82C14A2
:10968400C3F85015D2F83014C3F85415D2F8341472
:10969400C3F86015D2F83814C3F86415D2F83C1432
:1096A400C3F86815D2F84014C3F86C15D2F84424F2
:1096B400C3F87025FFF730FF28B1414B414A1B68BE
:1096C40003F04F031360FFF727FF48B14FF08043C7
:1096D400D3F80024D20744BF6FF00102C3F800247A
:1096E400394B1B68062B08D1384B1B68062B01BF6E
:1096F400374A136843F480631360364AD2F88830DB
:1097040043F47003C2F88830BFF34F8FBFF36F8FF9
:109714004FF01023D3F80022002A03DBD3F80432DD
:10972400002B2FDA2C4B0122C3F80425D3F8002494
:10973400002AFBD04FF010221521C2F80012D3F8F2
:109744000024002AFBD04FF010231522C3F8042272
:10975400214B1A46D3F800140029FBD00021C3F88A
:109764000415D2F80034002BFBD0BFF34F8F1949F6
:109774001A4BCA6802F4E0621343CB60BFF34F8F05
:1097840000BFFDE7164B174A1A6008BD24030010FA
:109794004035014074C007400DF0ADBA44020010DA
:1097A4003C050040F0ED00E0A005004010560040EC
:1097B400E00F00F0E40F00F0E80F00F000C00040FC
:1097C40058020010E40E0040300100103401001073
:1097D4003C17004000ED00E000E001400400FA0501
:1097E400B42200200090D003024940F2C71001F0D7
:1097F4008BBE00BFB4050300032810B5044603D98B
:1098040009493A2001F080FE084B1C5D1F2C01D948
:10981400FFF7EAFF4FF0A043D3F80405E040C0434C
:1098240000F0010010BD00BF5A050300B00503009D
:10983400032810B5044603D90849412001F064FE09
:10984400074B1C5D1F2C01D9FFF7CEFF01234FF0FE
:10985400A042A340C2F80C3510BD00BF5A05030056
:10986400B0050300032810B5044603D9084947206E
:1098740001F04AFE074B1C5D1F2C01D9FFF7B4FF12
:1098840001234FF0A042A340C2F8083510BD00BF29
:109894005A050300B005030008B50020FFF7E2FFF6
:1098A4000120FFF7DFFF0220FFF7DCFF0320BDE804
:1098B4000840FFF7D7BF08B50020FFF7B9FF012024
:1098C400FFF7B6FF0220FFF7B3FF0320BDE808400F
:1098D400FFF7AEBF032810B5044603D90B495F2038
:1098E40001F012FE0A4B1C5D1F2C01D9FFF77CFF0F
:1098F4004FF0A0410122D1F80435A24022EA03002E
:109904001340C1F80805C1F80C3510BD5A05030011
:10991400B0050300032810B5044603D90949AC2057
:1099240001F0F2FD084B1C5D1F2C01D9FFF75CFF11
:109934004FF0A043D3F81005E040C04300F001000D
:1099440010BD00BF5A050300AC0503000D2809D063
:109954000E2809D00F2809D010280CBF03204FF07F
:10996400FF30704700207047012070470220704785
:10997400032810B5044603D90349CB2001F0C4FDE4
:10998400024B185D10BD00BF5A050300AC0503006F
:10999400C20710B504460CD54FF0A0430322C3F808
:1099A4004427C3F84827C3F84C27C3F85027FFF7C8
:1099B40073FFA3070AD54FF0A0430C22C3F8342742
:1099C400C3F83827C3F83C27C3F8402710BD00006C
:1099D40038B5084C04F108030546002818BF1C4696
:1099E40023682BB11A6822605B6828469847F7E71A
:1099F40038BD00BF742B002020B9054B01225A70DA
:109A0400FFF7E6BF012802D1014A9070F8E77047DA
:109A14006C2B002020B9034B01225A70FFF7D8BFEA
:109A2400704700BF6C2B002038B50B4C237883B9EA
:109A34000A486360A3602361E36000F0F3F805461D
:109A440005F0DCFA08B900F003F901232370284675
:109A540038BD8525FBE700BF6C2B0020FD99020073
:109A640013B5154C237823B914494FF4847001F0CD
:109A74004BFDE36823B9114940F2091001F044FD9C
:109A840002A8002300F8013DFDF7C2FDE368013B95
:109A9400E360E36853B905F0B1FA18B107497920D6
:109AA40001F032FD00F0F4F80023A3709DF80700E4
:109AB400FDF7DEFD02B010BD6C2B0020E2050300B3
:109AC400012813B509D003D303281BD002B010BD5D
:109AD400134B0122C3F88020F8E702A80023114C9D
:109AE40000F8013DFDF794FD23780BB9FFF79CFFC7
:109AF400E3689DF807000133E3600123A370FDF7D9
:109B0400B7FDE3E7074B1B7823B9074940F243202D
:109B140001F0FAFC00F09CF8FFF7A2FFD6E700BFC3
:109B240000E100E06C2B0020E20503001FB5037880
:109B34008DF8003043680193037A8DF80830C368C8
:109B44000393054A054B684653F8213052F8211017
:109B5400984705B05DF804FB802B0020842B00207F
:109B64001FB503788DF800304368019383688DF83E
:109B74000830C3680393054A054B684653F82130FF
:109B840052F82110984705B05DF804FB802B0020A3
:109B9400842B0020F0B5194B067891F81DE043F8AA
:109BA4002620174B94460A6943F82620154B03F8E0
:109BB40006E00C4607460FCC89B06D460FC594E805
:109BC4000F0085E80F000496BEF1000F0AD0BCF127
:109BD400000F0D4A694608BF0022381D00F090FEB0
:109BE40009B0F0BDBCF1000F084A694608BF002265
:109BF40007F10C0000F012FCF2E700BF842B0020F8
:109C0400802B0020882B0020319B0200659B0200E2
:109C140000F18040002382B0036003680193019B3C
:109C240002B0704710B5044618B90749A22001F0E4
:109C34006BFC064B187920B901221C601A7158710B
:109C440010BD8520FCE700BF470603008C2B0020D5
:109C540008B50C4B1B791BB90B49BB2001F054FC14
:109C64000A4B1A68D20706D4E02283F800230122A3
:109C7400C3F880211A604FF080430122C3F81825ED
:109C840008BD00BF8C2B00204706030000E100E064
:109C940008B5084B1B791BB90749F22001F034FCC5
:109CA400064B01221A604FF08042D2F81834DB03CD
:109CB400FBD408BD8C2B0020470603000C00004099
:109CC400124B1B6810B573B14FF48070FFF7A0FFFF
:109CD4004FF080430122C3F808230D4B587910B983
:109CE4005A711B6898470B4B1B6873B14FF4827011
:109CF400FFF78EFF4FF080430222C3F80823044B82
:109D040001201B68BDE81040184710BD0001004049
:109D14008C2B00200401004000F1804000F5C0407D
:109D2400002382B0036003680193019B02B0704773
:109D3400054B4FF0FF32072843F8202084BF1B183F
:109D440083F84820704700BF942B0020024940F25A
:109D5400C71001F0D9BB00BFB40503001F2838B5F4
:109D640004460D4601D9FFF7F1FFA00000F1A04021
:109D7400D0F8003723F44033C0F80037D0F8003768
:109D840043EA0543C0F8003738BD000010B5174C4E
:109D940094F8583043BBFF21E2180133202B82F89A
:109DA4003010F9D10021C8B2FFF7C2FF01310C29EC
:109DB400F9D1042200210E4805F0AEFB0D4BE02240
:109DC40083F806234022C3F880214FF4BE701A6042
:109DD400FFF7A2FF084B4FF00042C3F8042301230E
:109DE40084F85830002010BD0820FCE7942B002094
:109DF400E82B002000E100E000600040034B93F8F2
:109E04005800003018BF0120704700BF942B002079
:109E14001F282DE9F84304468846914604D9414950
:109E24004FF4017001F070FB3F4F3B1993F9303050
:109E3400002B74DA98F80230C3F34003002B0BBFF5
:109E4400082500250C2108218D4202D10420BDE8FB
:109E5400F88357F8252001324FEA850645D13A198F
:109E640047F8259082F8305013B97B1983F848409D
:109E740098F802305A0717D4D90738D51F2C01D9BE
:109E8400FFF764FFA30003F1A043D3F8002722F0F7
:109E94000202C3F800272549E20804F00700012361
:109EA4008340885C03438B5498F8020098F80010B0
:109EB40010F002002AD006F1804303F5C0432402C7
:109EC400D3F8102522F4473222F44072C3F8102547
:109ED4000904D3F8102504F4F85401F440310C4378
:109EE4001443C3F810450020B1E70135ACE71F2C3B
:109EF40098F8019001D9FFF729FF04F5E0734FF0BA
:109F0400A0414FEA890241F82320C4E7083D3D44BB
:109F140095F8504044EA811185F8501097E70820DD
:109F240095E700BFAA060300942B0020E82B00202D
:109F34001F28F8B505460E4604D928494FF40D707C
:109F440001F0E2FA264C631993F93030002B04DA5D
:109F5400224940F2352001F0D7FA671997F93020E9
:109F6400072A1ADD224492F848309B09032B10D1AA
:109F74001F2D01D9FFF7EAFE4FF0A043D3F81035A7
:109F8400EB40DB0707D402212846BDE8F840FFF781
:109F9400E5BE012BF7D00321F6E7D3B2072B1CD87B
:109FA400930003F1804303F5C04302F14000D3F86A
:109FB4001015800041F00101C3F8101580B2FFF7BD
:109FC400ABFE56B197F9303054F823302BB101234E
:109FD40003FA02F2034BC3F80423F8BDAA060300F4
:109FE400942B0020006000401F2810B5044606D9B9
:109FF400074940F2852001F087FAFFF7A7FE4FF0EA
:10A00400A043D3F81005E04000F0010010BD00BFEC
:10A01400AA0603002DE9F04F87B000245B4A5C4E8A
:10A024005C4D039401211368A2F5C040012B80B25A
:10A0340006D1D6F804330B4202D0FFF76DFE0C4371
:10A044000432AA424FEA4101EDD1534B1B68012B64
:10A054000AD14FF4BE70FFF75FFE4FF0A04344F007
:10A064000044D3F81035039314F0FF0F1AD04B4F6C
:10A0740000250126344210D0AB0003F1804303F5E0
:10A08400C043D3F81005D3F8101557F82530C0F3A2
:10A094000420C1F3014103B198470135082D4FEA6B
:10A0A4004606E7D1002C6EDA00224FF0FF33CDE9EB
:10A0B40004233A4F4FF0000A56464FF0A04907EBED
:10A0C4000A0393F95040631C46D0E4B2012224F001
:10A0D400C00504F0070B02FA0BFBEB0806AAD11823
:10A0E40011F8042C12EA0B0F36D07A19A40992F94C
:10A0F400302057F82280B8F1000F0AD1032C2BD15D
:10A104000DF1100C1CF8030040EA0B000CF80300DE
:10A1140001E0032CF4D01F2D03D90191FFF716FEA3
:10A12400019911F80C1C05F5E07311EA0B0F59F8AD
:10A134002330C3F3014320D0022B0DD1032C05D1CE
:10A1440021462846FFF70AFE0136F6B2B8F1000FA1
:10A1540002D021462846C0470AF1010ABAF1040F89
:10A16400ADD186B14FF0A043039AD3F810359A428B
:10A1740009D00393049B05939CE7032BECD1032C98
:10A18400E4D10221DDE707B0BDE8F08F00610040B3
:10A1940000600040206100407C610040942B00205E
:10A1A40010B5054C22681AB90449512001F0ACF9E4
:10A1B4002368BDE810401847F02B00200F07030068
:10A1C40037B50D4630B90F49772001F09DF90020CD
:10A1D40003B030BD0C4B9842F9D102A8002300F81B
:10A1E400013DFDF715FA094B1C7914B901221D60D4
:10A1F4001A719DF80700FDF73BFA002CE7D01120F7
:10A20400E6E700BF0F07030000200040F02B00200A
:10A2140018B906499B2001F077B9054B984201BF54
:10A22400044B00221A601A71704700BF0F07030025
:10A2340000200040F02B00200023435082B04358FC
:10A244000193019B02B070470A4610B54FF48E711A
:10A25400FFF7F2FF136A9168C95C136A0133136252
:10A26400C0F81C1510BD8B690A4610B54FF48471F3
:10A2740023B9FFF7E1FFD0F8183510BDFFF7DCFF75
:10A28400536AD168D0F81805C854536A013353622D
:10A29400F3E70000024940F2C71001F035B900BFEE
:10A2A400B40503001F2810B5044601D9FFF7F2FFD7
:10A2B40004F5E0744FF0A043022243F8242010BDBB
:10A2C4001FB501238DF80030044BCDE90110D3E90B
:10A2D40000126846904705B05DF804FBF82B002097
:10A2E40030B54C4AD2F8043313F4007F85B01546D8
:10A2F4004FD0D2F82431002B4BD04FF4927110463A
:10A30400FFF79AFF4FF40173C2F80833424B93F8F6
:10A31400291009B9012151603E4902228DF800201B
:10A32400D1F88024C1F8802403929A690292DA68F1
:10A3340001920022C3E906226846D3E9001290473D
:10A344003448D0F81C315BB133490A6A4B699A42EC
:10A354000A464BD291F82830002B47D1FFF774FFFF
:10A364002C4AD2F8443193B14FF4A2711046FFF74E
:10A3740063FF294B93F8291009B1012111609A69EF
:10A384002AB100229A61586AD968FFF799FF05B08B
:10A3940030BDD5F804335B07D2D5D5F80831002B8E
:10A3A400CED01D4C1B482146FFF75DFF636AA269AE
:10A3B4009A422346C4D1E269E1684AB12369E36061
:10A3C4000023606AA261E3616362FFF779FFB7E784
:10A3D40094F829200AB901226A600E4A4FF40170E8
:10A3E400C2F8080300229A61586AEEE74FF48E71AE
:10A3F4000848FFF721FF51690029B1D000230291D9
:10A4040091688DF80030019153616846D2E90013D8
:10A414009847A5E700200040F82B00202DE9F84FCD
:10A42400064692460C4619B97849AA2001F06CF800
:10A434003579774F2C2303FB057393F82A30002BCF
:10A4440040F0DE8073493068FFF7BAFE804600288A
:10A4540040F0D980D4F80090B9F1FF3F18D0B9F199
:10A464001F0F01D9FFF716FF4FF0A043012202FA94
:10A4740009F2C3F80825D4F800B0BBF11F0F9946C0
:10A4840001D9FFF707FF0BF5E07B032349F82B30D5
:10A49400D4F80490B9F1FF3F0BD0B9F11F0F01D9E3
:10A4A400FFF7F8FE09F5E0794FF0A043002243F8E6
:10A4B40029203368A269217DC3F82425627D0A43DB
:10A4C400C3F86C25D4E900020129C3F81425C3F8A4
:10A4D4000C0535D1D4F80890B9F1FF3F0BD0B9F190
:10A4E4001F0F01D9FFF7D6FE09F5E0794FF0A0431D
:10A4F400002243F82920D4F80C90B9F1FF3F18D07A
:10A50400B9F11F0F01D9FFF7C5FE4FF0A043012297
:10A5140002FA09F2C3F80825D4F80CB0BBF11F0FF6
:10A52400994601D9FFF7B6FE0BF5E07B032349F802
:10A534002B30D4E902213368C3F80815C3F8102579
:10A544002C236B43FA18C2F804A02269FA50BAF11A
:10A55400000F42D04FF48E713068247FFFF76CFEF9
:10A564004FF4A2713068FFF767FE33682A4AC3F8D4
:10A5740004234FEA1339A31E012B4FFA89FA06D993
:10A58400631F022B03D925496B2000F0BDFFBAF1EC
:10A59400000FACBF0AF16043214B4FEA4414B8BF2B
:10A5A40009F00F09E4B2AABF03F5614303F80940B7
:10A5B40083F8004333681B0B03F01F0143F3C40308
:10A5C40023F0604323F0030303F1604303F5614385
:10A5D40001228A40C3F880211A6033680422C3F838
:10A5E40000252C2303FB05750023C5E9063385F8F4
:10A5F40029306B61012385F82A304046BDE8F88F85
:10A604004FF00808F9E74FF01108F6E77207030066
:10A61400F82B0020E5A2020080000200CE07030010
:10A6240014ED00E02DE9F84303680479254D002278
:10A63400C3F800252C2202FB04520646526872B16C
:10A64400214AC3F80823190B4AB20120520901F028
:10A654001F0100FA01F120321C4840F82210D3F8FF
:10A664000C05D3F81495D3F80875D3F810854FF07A
:10A67400FF329042C3F81425C3F80C25C3F808250B
:10A68400C3F8102501D0FFF70DFEB9F1FF3F02D04A
:10A694004846FFF707FEB8F1FF3F02D04046FFF7F8
:10A6A40001FE7B1C02D03846FFF7FCFD3068FFF743
:10A6B400AFFD2C2303FB0454002384F82A30636089
:10A6C400BDE8F883F82B00208402020000E100E0DA
:10A6D4002DE9F84F354E07792C2303FB0763804699
:10A6E40093F82A30012B8A46934604D0304940F22D
:10A6F400151000F009FFBAF1000F04D12C494FF4F2
:10A704008B7000F001FFBBF1000F04D1284940F227
:10A71400171000F0F9FE98F804302C2404FB0363AE
:10A724005D69002D3ED107FB04694FF48E71C9F8B1
:10A734002050D8F80000C9F814B0C9F808A089F866
:10A744002850FFF779FDD8F80000012383604946BB
:10A75400FFF77AFDD9F804304C462BBBD8F80050EB
:10A76400226A63699A4212D3D8F80030D3F81C21C4
:10A77400002AFBD00122DA6000202C2303FB0766A9
:10A7840000237361BDE8F88F94F8283043B9D5F8F5
:10A794001C31002BF8D049462846FFF755FDDFE76A
:10A7A4000F20EAE71120EDE72846EBE7F82B00201D
:10A7B400720703000023435082B043580193019B66
:10A7C40002B07047024940F2C71000F09DBE00BFBE
:10A7D400B40503001F2810B5044601D9FFF7F2FFA2
:10A7E40004F5E0744FF0A043022243F8242010BD86
:10A7F4001FB501238DF80030054B8DF80800019139
:10A804006846D3E90012904705B05DF804FB00BF29
:10A81400242C00207FB5384AD2F82461002E49D078
:10A8240010464FF49271FFF7C5FF02238DF80030F4
:10A83400D2F88034C2F880340393D2F83C358DF8D2
:10A8440008302E4BDA6801920022C3E906226846DA
:10A85400D3E900129047284AD2F8443173B14FF437
:10A86400A2711046FFF7A6FF244B996931B100216C
:10A874009961D2F83C05D968FFF7BAFF1E4AD2F8AD
:10A884002031ABB14FF490711046FFF793FF1B4B8F
:10A89400596969B1D2F84C158DF8081000229968ED
:10A8A4008DF8002001915A616846D3E9001290475F
:10A8B40004B070BDD2F81031002BCCD04FF48871A5
:10A8C4001046FFF777FF0D4BD2F83C059969884293
:10A8D400C1D1DC69D96864B1D2F8005225F02005F1
:10A8E400C2F800521A699C61DA60DE61FFF780FFEA
:10A8F400B1E79C61FAE700BF00200040242C00204F
:10A904002DE9F84F054692460C4619B97C49BC20FE
:10A9140000F0FAFD2E797B4F242303FB067393F892
:10A924002030002B40F0E68077492868FFF748FC88
:10A934008046002840F0E180D4F80090B9F1FF3F50
:10A9440018D0B9F11F0F01D9FFF73CFF4FF0A04316
:10A95400012202FA09F2C3F80825D4F800B0BBF1C9
:10A964001F0F994601D9FFF72DFF0BF5E07B032359
:10A9740049F82B30D4F80490B9F1FF3F0BD0B9F16A
:10A984001F0F01D9FFF71EFF09F5E0794FF0A0432F
:10A99400002243F829202B68A269217DC3F82425CD
:10A9A400627D0A43C3F86C25D4E900200129C3F869
:10A9B4000C25C3F8140535D1D4F80890B9F1FF3F3C
:10A9C4000BD0B9F11F0F01D9FFF7FCFE09F5E079AF
:10A9D4004FF0A043002243F82920D4F80C90B9F199
:10A9E400FF3F18D0B9F11F0F01D9FFF7EBFE4FF06D
:10A9F400A043012202FA09F2C3F80825D4F80CB0E6
:10AA0400BBF11F0F994601D9FFF7DCFE0BF5E07B84
:10AA1400032349F82B30D4E902212B68C3F8081525
:10AA2400C3F8102524237343FA18C2F804A022693A
:10AA3400FA50BAF1000F4CD04FF488712868247F83
:10AA4400FFF7B8FE4FF490712868FFF7B3FE4FF498
:10AA540092712868FFF7AEFE4FF4A2712868FFF7E1
:10AA6400A9FE2B68294AC3F804234FEA1339A31E0D
:10AA7400012B4FFA89FA06D9631F022B03D9244903
:10AA84006B2000F041FDBAF1000FACBF0AF1604346
:10AA9400204B4FEA4414B8BF09F00F09E4B2AABF2F
:10AAA40003F5614303F8094083F800432B681B0B4B
:10AAB40003F01F0143F3C40323F0604323F00303B3
:10AAC40003F1604303F5614301228A40C3F8802106
:10AAD4001A602B680822C3F80025242303FB06769A
:10AAE4000023C6E906337361012386F8203040460B
:10AAF400BDE8F88F4FF00808F9E74FF01108F6E7C2
:10AB040002080300242C002019A8020010030200EC
:10AB1400CE07030014ED00E02DE9F843036804793F
:10AB2400254D0022C3F80025242202FB04520646C8
:10AB3400526872B1214AC3F80823190B4AB20120A2
:10AB4400520901F01F0100FA01F120321C4840F8BB
:10AB54002210D3F80C05D3F81495D3F80875D3F85C
:10AB640010854FF0FF329042C3F80C25C3F814252A
:10AB7400C3F80825C3F8102501D0FFF72BFEB9F15F
:10AB8400FF3F02D04846FFF725FEB8F1FF3F02D051
:10AB94004046FFF71FFE7B1C02D03846FFF71AFE23
:10ABA4003068FFF735FB242303FB0454002384F8A7
:10ABB40020306360BDE8F883242C002010030200D9
:10ABC40000E100E02DE9F843354D0779242303FB28
:10ABD4000753064693F82030012B8846914604D04B
:10ABE400304940F20D1000F08FFCB8F1000F04D191
:10ABF4002C494FF4877000F087FCB9F1000F04D1A1
:10AC0400284940F20F1000F07FFC337913B9B9F1F1
:10AC1400FF0F04D923494FF4887000F075FC08F045
:10AC24006043B3F1005F34D13379242404FB03532C
:10AC34005A6982BB04FB07544FF490713068C4F81E
:10AC44001490C4F80880FFF7B5FD4FF4AC71306878
:10AC5400FFF7B0FD33686169A068C3F84405C3F821
:10AC64004815012199606168B9B9D3F82011D3F866
:10AC7400582149B9002AF8D00F20242303FB075593
:10AC840000236B61BDE8F883002A14BF0F20002065
:10AC9400F3E71020F6E71120F4E71046F2E700BFCF
:10ACA400242C0020020803000220FEF713BE00003B
:10ACB4002DE9F04781460D46FEF748FE0328044679
:10ACC40004D8012D04D024D3022D2FD0BDE8F08761
:10ACD400194D47003A18A918AE5C4A7852B1DFF80A
:10ACE4006880164842464FF40041FCF72FFC08B92F
:10ACF40088F800903B192B449A78114B1A55002E72
:10AD0400E4D0104B1B68002BE0D03046BDE8F04780
:10AD140018470A48FCF75EFC074B04EB4402134453
:10AD24009E78074B1B5DB342D0D1E8E7024B00EBA2
:10AD340040041C446678E2E7AC2C00206C2C002014
:10AD4400C52C0020C02C0020482C002002210078B3
:10AD5400FFF7AEBF08B5094B1B7853B10020FEF7CF
:10AD640081FD0120FEF77EFD0320BDE80840FEF7CB
:10AD740079BDBDE80840FEF78FBD00BF492C002017
:10AD8400F8B5794C237805461BB100232370FFF7EF
:10AD9400E1FF172D00F28480DFE805F00C13133F68
:10ADA4005061727C84898489919696969696C0C5E2
:10ADB400CDD5E0E0FFF7CEFF6C4B00241C7020469D
:10ADC400F8BD0020FEF718FDF8B10020FEF74AFD9B
:10ADD400022D0CBF4FF4E1614FF47A61634B1D7097
:10ADE4004FF400404FF4FA740025E0FB01454FF4A2
:10ADF4007A7200232046294604F06AFA00220146AA
:10AE04005B48BDE8F840FCF7A1BBFEF711FD022D3D
:10AE14000CBFC8214FF4C871E0E70020FEF7ECFC3A
:10AE240040B10020FEF71EFD4FF448714F4B032242
:10AE34001A70D5E7FEF7FCFCC821F7E70020FEF7FF
:10AE4400DBFC38B10020FEF70DFD4FF47A61474B6F
:10AE54000422EDE7FEF7ECFC4FF4C871F7E700209D
:10AE6400FEF7CAFC48B10020FEF7FCFC3F4B05226C
:10AE74001A7041F69A110022C2E7FEF7D9FCF5E7F1
:10AE84000020FEF727FD394B06221A70002240F6F7
:10AE9400CD41B5E70020FEF7CBFC344B07221A70F6
:10AEA40000248CE701202070FEF714FDEEE701205A
:10AEB4002070FEF70FFD00224FF48041A0E7FEF75B
:10AEC400FAFC2A4B0C22EAE72A482B4EFCF782FBB9
:10AED400D5F1110504461CD0D8B9012D13D0C823CF
:10AEE4005D434FF400474FF4FA7000214FF47A7237
:10AEF4000023C7FB050104F0EBF9224601461D4877
:10AF0400FCF724FB04460220FEF792FC0123337075
:10AF140055E70220FEF7A6FC0023F8E7FFF71AFF27
:10AF2400124B1222BBE7FFF715FF0020FEF780FC4F
:10AF34000E4B1322B3E7FFF70DFF0120FEF778FC59
:10AF44000A4B1422ABE7FFF705FF0020FEF770FC65
:10AF54000120FEF76DFC054B1522A0E7FEF7ABFCC4
:10AF6400024B1D709CE700BFBC2C0020C42C0020A9
:10AF74008C2C00204C2C0020492C0020044B1B68F6
:10AF8400DB0703D5034B1878FFF7FABE704700BF01
:10AF9400B82C0020C42C00201F2838B504460D46C8
:10AFA40004D90A4940F2C71000F0AEFAA00000F13B
:10AFB400A040D0F8003723F44033C0F80037D0F86D
:10AFC400001741EA0541C0F8001738BDB405030075
:10AFD400032801D8FEF79EBC00207047044B1B6871
:10AFE40013F0010301D0FFF7CBBE1846704700BF32
:10AFF400B82C002038B51C4B18601C4B10F0020410
:10B00400054619601AD01A4B1A480E221A700F22DC
:10B01400DA7010229A7111225A72042140F2666287
:10B02400FBF760FF044648B9FBF7B0FF044628B9B4
:10B034000146114A1148FCF777FA0446EB0711D58B
:10B044000120FEF7A5FC6CB921460D4A0D48FCF71A
:10B054006BFA044630B90C4A0C480121BDE838406B
:10B06400FCF762BA204638BDB82C0020C02C002062
:10B07400AC2C00206808030051AD02008C080300CA
:10B0840081AF020090080300ADAC02008808030001
:10B09400032812D8012A0BD1012908D100F10E028C
:10B0A400D2B200EB40000C4B1A540020704700222F
:10B0B4000129F6D009D3022901D007207047064B95
:10B0C40000EB400018444270EFE7034B00EB4000F4
:10B0D40018448270E9E700BFAC2C0020032808B5AF
:10B0E40006D8FEF745FC0321FFF756FF002008BDF4
:10B0F4000620FCE708B5012202210020FFF7C8FF63
:10B1040008B1072810D1072202210120FFF7C0FF50
:10B1140008B1072808D100210A220846FFF7B8FF22
:10B1240010B1072808BF002008BD00000388102BB9
:10B1340010B502D0112B1ED010BD1A4C2168B1B924
:10B1440001220846FFF7A4FF08B1072824D10722EB
:10B1540002210120FFF79CFF08B107281CD104221B
:10B1640002210020FFF794FF08B1072814D12368B7
:10B1740001332360E0E70B4A1368013B1360002BA3
:10B18400DAD1FFF7B7FF0028D6D0074B1B68002B96
:10B19400D2D0BDE810401847034B1B68002BE6D003
:10B1A4009847E4E7D02C0020CC2C002008B50020E0
:10B1B400FFF794FF08B1062806D10120FFF78EFFA0
:10B1C40010B1062808BF002008BD00000D4B10B5C3
:10B1D40018600C4629B10120FFF7FAFE40B10223A2
:10B1E4002370094B1B6853B9BDE81040FFF782BFB9
:10B1F400FFF7EEFE08B10B23F2E72070F1E7002021
:10B2040010BD00BFCC2C0020D02C002070DF704774
:10B2140076DF70477ADF70477CDF70478FDF7047D7
:10B2240033DF7047024A40F23711FBF7F9BE00BF23
:10B23400ED080300024A40F26711FBF7F1BE00BFBC
:10B24400ED08030008B50020FFF7C8FE20B10C4A42
:10B2540040F28D11FBF7E4FEFFF7A8FF20B1084A86
:10B2640040F29111FBF7DCFEFFF7DAFF30B1044A3C
:10B2740040F29511BDE80840FBF7D2BE08BD00BFFF
:10B28400ED0803000388212B13B504463CD005D8F0
:10B29400102B1AD0112B0FD002B010BD3B2B40D075
:10B2A400562BF9D113218088FFF7B2FF0028F3D081
:10B2B400214A40F2E71124E0204B21491888000478
:10B2C40040F00300FBF7BAFBE6E71C4B1D49188866
:10B2D400000440F00300FBF7B1FB0720FFF77EFEFC
:10B2E40020B1154A4FF4E471FBF79AFE164BA1887E
:10B2F4001648198001F0DEFF0028CDD00E4A40F236
:10B30400CB11FBF78DFEC7E702A9002321F8043D0A
:10B314008088FFF783FF0028BED0074A40F2D71188
:10B32400EFE713218088FFF773FF0028B4D0024AA7
:10B3340040F2DF11E5E700BFED0803002C220020F6
:10B3440094080300A2080300BC220020A02D0020C2
:10B3540008B5037863B9074B3B211888FFF758FFFA
:10B3640030B1054A4FF4AE71BDE80840FBF758BE52
:10B3740008BD00BFBC220020ED080300072808B563
:10B3840016D00A2810D0042822D1124B1321188871
:10B39400FFF73EFF30F008031AD00F4A40F24D2168
:10B3A400BDE80840FBF73CBEBDE80840FFF74ABFD4
:10B3B400084B1A884FF6FF739A4209D1074800F0E8
:10B3C40086FE30F0080303D0034A40F25721E7E732
:10B3D40008BD00BFBC220020ED080300D42C0020CF
:10B3E40008B5A0B1032816D10B4B0C4918880004EA
:10B3F40040F00300FBF722FB0220FFF7EFFD50B102
:10B40400074A4FF4D471BDE80840FBF709BEBDE814
:10B414000840FFF717BF08BD2C2200205409030081
:10B42400ED08030008B50321054800F0F0FC30B135
:10B43400044A40F2DD21BDE80840FBF7F1BD08BD38
:10B44400D42C0020ED08030030B5037885B0044601
:10B454000D2B10D8DFE803F0070F110F220F2A4934
:10B464000F370F3D3443244B24491888000440F01F
:10B474000300FBF7E3FA05B030BD1F4B40881D887D
:10B4840001F02CF82D04227A009245F003050246BF
:10B4940063881B492846FBF7E9FAECE704A9002373
:10B4A40001F8043D408802F0EFFCE4E7FCF7D4FF28
:10B4B40030F00803DFD0134AC521FBF7B1FDDAE70A
:10B4C400FFF7B0FFD7E700690028D4D00D4AD12197
:10B4D400F3E780680028CED00A4AD721EDE78068D8
:10B4E4000028C8D0074ADD21E7E780680028C2D0D9
:10B4F400044AE321E1E700BF2C220020660903008F
:10B504008F090300ED0803000A4601460148FBF7D2
:10B5140087BD00BFEFBEADDE80B54FF40041B4B0CF
:10B524000020FBF7AFF820B1B04A40F2B321FBF79B
:10B5340077FDFAF7C5FFAE490320FFF75BFD20B1A5
:10B54400AA4A40F2A521FBF76BFD09A90020FFF7E9
:10B554003DFE20B1A54A4FF42A71FBF761FD9DF829
:10B564002450FDF731FF20B1A04A40F2BF21FBF780
:10B5740057FD03F0BFFC20B19C4A4FF4FD71FBF76B
:10B584004FFD002309A90120099303F087FD20B191
:10B59400964A4FF40071FBF743FD09A803F02AFE15
:10B5A40020B1924A4FF40171FBF73AFD34AC1123F8
:10B5B40004F8CC3D8F4803F0E2FF8E4982B2204666
:10B5C400FFF72AFE064650B1884A40F20511FBF700
:10B5D40027FD864A40F209113046FBF721FD04AEEF
:10B5E40000210822304603F097FF83494FF0C873C7
:10B5F4003046CDE90413FFF70DFE20B17B4A40F23B
:10B604001311FBF70DFD0822002109A803F084FFA4
:10B6140040F2012309A80993FFF7F8FD20B1734A0A
:10B6240040F21D11FBF7FCFC0021744801F034FDCD
:10B6340020B16E4A4FF49571FBF7F2FCAC22002165
:10B6440009A803F069FF02238DF8243001238DF843
:10B654002630ADF834306A4B0E93062234AB8DF8A5
:10B664002720FC2203F8CD2D0A93664B324603F1C2
:10B67400100C18685968174603C7083363453A46DF
:10B68400F7D119889B78BB7059233980ADF8043001
:10B694001323ADF8083000238DF8603001238DF8B2
:10B6A400A0304FF4967244F25063CDE92B2309A9DC
:10B6B400554B564803962194329300F036FB20B143
:10B6C4004A4A40F29521FBF7ABFC01214F4800F0B8
:10B6D40029FB4F4B4F48099309A901F0D9FD20B12B
:10B6E400424A40F24711FBF79BFC1C22002109A8A7
:10B6F40003F012FF00234FF42032CDE90932ADF8F4
:10B7040032304FF470228DF83430434B0B920E9349
:10B714000322424B8DF8302009A80F9300F0F8FD66
:10B7240020B1324A4FF4BF71FBF77AFC02F058FBA8
:10B7340020B12E4A40F21321FBF772FC05220021AE
:10B7440009A803F0E9FE9DF8243043F00103032225
:10B7540003F0F10362F306136FF3C7138DF824307B
:10B7640007238DF8253010238DF826309DF82730D7
:10B7740013438DF827309DF8283009A813438DF81A
:10B78400283002F077FB20B1184A40F22621FBF75B
:10B7940047FC234802F056FB20B1144A40F2292109
:10B7A400FBF73EFC1F4C20492088000440F00300B6
:10B7B400FBF744F9022D15D120881C49000440F000
:10B7C4000300FBF73BF902F06DFB20B1074A40F29E
:10B7D4003621FBF725FCFAF7BBFF0028FBD1FDF768
:10B7E40009FEF8E7FFF71EFEF5E700BFED080300CA
:10B7F40081B30200AD0803005000A0008C2D00208E
:10B80400B8220020DA080300E5B30200D42C00209B
:10B8140029B20200A02D002055B3020039B2020063
:10B824004DB402002C220020B3080300CD0803000D
:10B834006DDF704779DF70477DDF704764DF7047E5
:10B844002DE9F74F0C9CBDF834B0278800258046BD
:10B854008A4691462E46B8F80020B2420BDC35B138
:10B864002288013AD21B92B2FF2A39D8DA55002035
:10B8740003B0BDE8F08FD8F8042052F826000190F8
:10B8840000220DF1030101A8FFF7D8FF0028EFD132
:10B894009DF803204A4521D12288002D14BF0020A1
:10B8A400022002EB09010144594519DC3DB901327A
:10B8B40092B2228003F802A02288013222802288D8
:10B8C4000DF103011A4401A8FFF7B8FF0028CFD1F6
:10B8D40021889DF803200A44228001250136BAE715
:10B8E4000C20C5E72DE9F341089CBDF82450174608
:10B8F400CDE9004502220646FFF7A2FF48B910220F
:10B9040039463046CDE9084502B0BDE8F041FFF7BD
:10B9140097BF02B0BDE8F0812DE9F04F00231688EF
:10B92400138090F82D3085B007460D46144653B366
:10B93400082E01D80C2004E102A8FFF779FF0028A3
:10B9440040F0FF8013880822CA54238801339BB235
:10B954001B222380CA542088013080B22080062212
:10B964000DF10901284403F0AEFD23889DF8082059
:10B9740006339BB212F0FE0218BF01222380EA5460
:10B98400238801332380BB78FBB123880433B3427B
:10B99400D0D802A8FFF74EFF002840F0D2802388B9
:10B9A4000322EA54238801339BB219222380EA54E8
:10B9B4002388BDF8082001339BB2E9182380EA5498
:10B9C400120A4A70238802332380FA789AB12388B2
:10B9D400D91CB142AED80221E954238801339BB269
:10B9E40001212380E95423880B449BB22380EA5429
:10B9F40023880B4423807A68AAB12388D91CB142D6
:10BA040098D8022192F90020E954238801339BB28B
:10BA14000A212380E954238801339BB22380EA540A
:10BA24002388013323803B89002B7ED13B8A53B189
:10BA3400CDE900462B460722032107F11000FFF74A
:10BA440051FF00287DD13B8B53B1CDE900462B46F5
:10BA54001522142107F11800FFF744FF002870D1C4
:10BA64003A6A002A70D1D7F82480B8F1000F30D098
:10BA7400B8F804302188981C8A1C0244B2423FF66C
:10BA840059AFFE283FF656AF03336B542388013376
:10BA94009BB2FF222380EA54238801339BB2238084
:10BAA400B8F80020EA54E918120A4A7020880230D3
:10BAB40080B22080B8F804205AB1D8F808100029C0
:10BAC4004CD0284403F0FFFC2388B8F80420134426
