:020000040000FA
:10000000C0070000D1060000D1000000B1060000CA
:1000100000000000000000000000000000000000E0
:100020000000000000000000000000005107000078
:100030000000000000000000DB000000E500000000
:10004000EF000000F9000000030100000D010000B6
:1000500017010000210100002B0100003501000004
:100060003F01000049010000530100005D01000054
:1000700067010000710100007B01000085010000A4
:100080008F01000099010000A3010000AD010000F4
:10009000B7010000C1010000CB010000D501000044
:1000A000DF010000E9010000F3010000FD01000094
:1000B00007020000110200001B02000025020000E0
:1000C0001FB5C046C04600F0EFFA04B00FB41FBD24
:1000D00008205A49096809580847382057490968CB
:1000E000095808473C2055490968095808474020E5
:1000F0005249096809580847442050490968095875
:10010000084748204D490968095808474C204B4981
:10011000096809580847502048490968095808479C
:100120005420464909680958084758204349096836
:10013000095808475C204149096809580847602068
:100140003E4909680958084764203C49096809582C
:100150000847682039490968095808476C20374919
:100160000968095808477020344909680958084740
:100170007420324909680958084778202F490968CE
:10018000095808477C202D490968095808478020EC
:100190002A490968095808478420284909680958E4
:1001A0000847882025490968095808478C202349B1
:1001B00009680958084790202049096809580847E4
:1001C00094201E4909680958084798201B49096866
:1001D000095808479C201949096809580847A02070
:1001E0001649096809580847A4201449096809589C
:1001F0000847A8201149096809580847AC200F4949
:10020000096809580847B0200C4909680958084787
:10021000B4200A49096809580847B82007490968FD
:1002200009580847BC2005490968095808470000D3
:1002300003480449024A034B7047000000000020B5
:10024000C0070000C00700000122D84B5A6000BF61
:10025000D74A1268002AFBD0016000BFD44A126856
:10026000002AFBD00022D14B5A6000BFD04A12684E
:10027000002AFBD07047F0B505460E46174600240D
:1002800006E0A200B158A2005019FFF7DDFF641C80
:10029000BC42F6D30020F0BD0120C043C549086030
:1002A000401048607047014601229204086890425D
:1002B00001D9102070470020FCE7F0B505460C4638
:1002C0001646002706E028462168FFF7BDFF2D1DD2
:1002D000241D7F1CB742F6D3F0BD70B505460C4611
:1002E0002E460BE0304600F075F9FF2C01D80024B3
:1002F00001E0FF3C013C012080023618002CF1D1C6
:1003000070BD0146012212044868904201D90920BB
:100310007047A9484069401C01D10F20F8E7002030
:10032000F6E7FEB504462068030000F037FA05043E
:100330002B4249598B00201DFFF7E3FF0546002D96
:1003400001D02846FEBDFFF7A7FF0120C00200F044
:1003500041F9042221469948FFF78DFF002801D07A
:100360000320EFE708222146944800F06DF90028A9
:1003700006D1002192480068FFF766FF00F00CF9F3
:100380000320DFE7A768E6686068019031463846D9
:10039000FFF7A3FF324638460199FFF78EFFB20000
:1003A0003846019900F050F9002800D1CAE703202F
:1003B000C8E700F0E3F9834800688349086041E03A
:1003C00060680190E668A0680090B200009901980A
:1003D00000F03AF90746002F00D1B3E70E20B1E74D
:1003E000201DFFF760FF0546002D01D02846A9E734
:1003F0006068002807D1FFF74FFF0320800200F05C
:10040000E9F800F0C9F8FFF747FF0120C00200F04B
:10041000E1F8042221466948FFF72DFF002801D0AA
:1004200003208FE708222146644800F00DF90028D8
:1004300006D1002162480068FFF706FF00F0ACF823
:1004400003207FE700BF00207CE770B505460C461F
:10045000182D04D12068FFF764FF206002E001201E
:10046000206000BF00BF70BDF0B589B05248406940
:1004700003905248806881000398081802900398FE
:10048000000B01900121090302984018401E000B47
:1004900000900124002520462946019A00F0C4F866
:1004A0000022401E91410791069001260027304608
:1004B0003946009A00F0B8F80022401E914105919B
:1004C0000490049BDB43059AD2430698184307998E
:1004D00011430791069037490698086007984860CD
:1004E00009B0F0BD70B53448446934488568466841
:1004F000AA003146204600F0A7F8002801D00020CD
:1005000070BD0120FCE72D484068002801D0012083
:1005100000E000200546FFF7E5FF002807D0FFF7C1
:10052000BBFE0320800200F055F800F035F8FFF71D
:100530009BFF002D0ED020484669204884684768FC
:1005400021463046FFF7C9FE224639463046FFF7BE
:10055000B4FE00BF00F020F810B5184844681A48EF
:100560000460204600F0DCF810BD15480068006803
:10057000401C01D100BFFEE710480068002802D0EF
:10058000042806D101E0FFF7BEFFFFF7E5FF00BF3B
:10059000FEE700BF00BFFEE7BFF34F8F0B480C49DB
:1005A000C860BFF34F8F00BFFEE7000000E50140C9
:1005B00000E40140000600400010001000080000A8
:1005C000B8070000BC070000000000200400FA0586
:1005D00000ED00E010B50146104B1A6808460223F2
:1005E0000F4C636000BF0F4B1B68002BFBD0531CEC
:1005F00004D0904202D20A4B186101E0084B986087
:1006000000BF084B1B68002BFBD00023044C636029
:1006100000BF044B1B68002BFBD010BD0010001066
:1006200000E5014000E4014010B5202A04DB01464A
:10063000203A9140002010BD914020239C1A03468F
:10064000E3401943904010BD034610B50B439B0790
:100650000FD1042A0DD308C810C9121FA342F8D025
:1006600018BA21BA884201D9012010BD0020C04328
:1006700010BD002A03D0D30703D0521C07E000208E
:1006800010BD03780C78401C491C1B1B07D1037854
:100690000C78401C491C1B1B01D1921EF1D118463D
:1006A00010BD70477047704710B500F007F810BDD7
:1006B000014B1B68DB6818470000002019481A49E5
:1006C0007047FFF7FBFFFFF7FBFC00BD20BFFDE716
:1006D0001649174C24688C420BD1164B1B68994263
:1006E0000CD1154B154A1360186810498842EDD09B
:1006F0000AE0134880F30888124B18470F4A13602A
:1007000018680A498842E1D080F308880E49884277
:1007100004DD0E48026802210A4302605B68184744
:100720000346DFE7C0070000C0070000FFFFFFFF30
:10073000000C000014100010001000000000002049
:10074000000400206B05000000200020240500406C
:100750000D48704502D1EFF3098101E0EFF3088104
:10076000886902380078182802D1C046074A104725
:10077000074A12682C3212681047000000B5054B7A
:10078000054A9B58984700BDFDFFFFFF4B04000042
:1007900000000020001000000400000030B4744687
:1007A000641E2578641CAB4204D3635D5B00E318D0
:1007B00030BC18471D46F8E7000C00000010000090
:101000009010002089B70100B11C0000EFB601006C
:1010100000000000000000000000000000000000D0
:10102000000000000000000000000000F9B701000F
:101030000000000000000000B11C0000B11C000016
:1010400065B801006BB80100B11C0000B11C0000C4
:10105000B11C0000B11C0000B11C0000B11C00005C
:1010600071B80100B11C0000B11C000077B801008C
:10107000B11C00007DB8010083B8010089B80100EF
:10108000B11C0000B11C0000B11C0000B11C00002C
:10109000B11C0000B11C0000B11C0000B11C00001C
:1010A0008FB8010095B80100B11C0000B11C000010
:1010B000B11C0000B11C0000B11C0000B11C0000FC
:1010C00000F002F81AF041FB0CA030C808382418D0
:1010D0002D18A246671EAB4654465D46AC4201D170
:1010E0001AF033FB7E460F3E0FCCB6460126334244
:1010F00000D0FB1AA246AB463343184728A901008B
:1011000058A90100103A02D378C878C1FAD852071A
:1011100001D330C830C101D504680C6070470000AD
:101120000023002400250026103A01D378C1FBD803
:10113000520700D330C100D50B6070471FB5C046C1
:10114000C0461AF0A4FA04B00FB41FBD8269024968
:1011500081610248104470476111000001000000E5
:1011600001B41EB400B501F042FE01B401988646F8
:1011700001BC01B01EBD0000F0B4404649465246D5
:101180005B460FB402A0013001B50648004700BF1E
:1011900001BC86460FBC8046894692469B46F0BC01
:1011A00070470000C110000070B505460C46164699
:1011B00002E00FCC0FC5103E102EFAD2082E02D33B
:1011C00003CC03C5083E042E07D301CC01C5361F4E
:1011D00003E021782970641C6D1C761EF9D270BD65
:1011E00070B505462D4C08202070A01C00F0A7F813
:1011F0005920A0802946204601F018F970BD10B58D
:1012000001F01DF925490020891E087010BDF8B5B0
:10121000224E0446B61E307801270D46002807D01E
:10122000204660380B2808D8204601F075FD2BE0D9
:10123000602CF9D01A480860F8BD20466C380328A5
:1012400003D8204601F0ADFD1EE0204670381F286F
:1012500003D8204600F04CFD16E0204690380F28B9
:1012600003D8204600F0F7FD0EE02046A0380F28F6
:1012700003D8204600F04BFE06E02046B0380F2889
:1012800004D8204601F08FFD286000E02F60602C1C
:10129000D2D128680028CFD13770F8BD1A000020BD
:1012A000013000008307FF22DB0E9A408907090EF8
:1012B000994000280BDA0007000F083883082748F8
:1012C0009B001818C36993430B43C361704783089D
:1012D00023489B001B181868904308431860704708
:1012E00010B5044600210120FFF7DCFF0021182083
:1012F000FFF7D8FF00210B20FFF7D4FF02211920B0
:10130000FFF7D0FF02210D20FFF7CCFF02210E20B6
:10131000FFF7C8FF02210F20FFF7C4FF0221C81FFB
:10132000FFF7C0FF03211620FFF7BCFF03211520A4
:10133000FFF7B8FF2046FFF753FF002010BD7321D1
:101340000180704710B5FFF75AFF10BD0548704780
:1013500010B5FFF75CFF10BD7047704700ED00E06F
:1013600000E400E003F9004330B40121BD48C902A4
:101370000160CD1005604A030260BB4803681B0290
:101380001B0A036004680023240A24020460B7488F
:101390000468240A24020460B5480124446084607F
:1013A000B44C23606360A360B34B19601D601A6086
:1013B000B24B19601A600121016030BC704710B453
:1013C0000121A848CA0202600B0203600C060460F7
:1013D000A74841608160AA4841680029FCD1A5491D
:1013E0000020086048608860A348026003600460D1
:1013F00010BC70470121A048C9020160C9100160FA
:101400007047002805D0012805D0022805D19D4845
:1014100070479D4870479D48704710B59CA191202A
:101420001AF05FF9002010BD70B500219F4CA04D4F
:10143000A04A904B002808D001281DD0022822D0B5
:1014400093A1BF201AF04DF970BD01200004A060E7
:10145000A86011601960984BC2039A60974A906027
:10146000804A0012106096480160874801609548E4
:1014700001609548017070BD01204004A060A86023
:101480005160596070BD01208004A060A860916027
:10149000996070BDF8B59446844A8C4F844E002400
:1014A0000125002808D0012832D0022840D078A198
:1014B000F4201AF016F9F8BD891E0902090A012064
:1014C000000490603C6470606D4A1164012B1DD073
:1014D00000217D4B624659707D494D60CD607D494C
:1014E0004C6002248C6004240C6175493D320A6012
:1014F00074490D60604A89151160704A50605F48F8
:1015000001606D49C00548601D70F8BD0121E0E72C
:101510000120714D4004714F012B04D12C645060A7
:1015200070603964F8BD90602C6470603964F8BDF7
:1015300001206B4D80046B4F012BF4D1EEE7504836
:101540004068704770B54B4D28680026574C0128FD
:1015500006D1A068C00303D501200004A0602E605E
:101560006868012809D1A068800306D501204004DD
:10157000A0606E60012002F04CFDA868012809D12E
:10158000A068400306D501208004A060AE60022060
:1015900002F03FFD70BD10B54B490878002818D007
:1015A0000120454AC0079060444AC00B90602D4A14
:1015B00000121060424A00201060334A1060414A15
:1015C000106008704A78002A02D0487002F021FDAD
:1015D00010BD0320FAE70120434900060860704768
:1015E0000120254900060860704701203E4940055A
:1015F0000860704701202049400508607047344862
:1016000001214160C1601C49801508607047410A92
:10161000364AC005C00D5043FF3001305143400AE7
:101620000818704710B4324C430B63431B0C5C0228
:101630000C602E4C6343C31A2E485C0258432B4B5C
:10164000400D4343E31A0124DB03E4051B191B1679
:1016500013700A681018086010BC704710B502F0CB
:10166000D1FD10BD80E100E008E400E018E400E0F6
:1016700000B0004040B1004080E200E000E100E046
:1016800000B5004048B100404081004044B10040F6
:101690007372635C72656D5F68616C5F6576656EC1
:1016A000745F74696D65722E6300000000B30040C2
:1016B00040B3004040B5004000F5014000830040C9
:1016C00040850040008200402000002000B1004022
:1016D000008000400085004004B1004004B5004097
:1016E00008B1004008B5004000E200E0093D0000FC
:1016F000378600006F0C010010B502F06FFD10BDC1
:1017000000200449C863012001218140024A116080
:1017100000BF7047C01F004080E200E001203F4949
:10172000400608603E4908603E490A68FF231B02E4
:101730009A4383121A430A60384980390860704717
:1017400010B502460420384904E0C3005B181B7939
:10175000002B0AD00346401EC0B2002BF5D133A1A6
:10176000432019F0BEFFFF2010BDC300CA50002265
:1017700059184A718A7101220A7110BD2A4A002142
:10178000C00080180171704710B50446042803D3C7
:1017900026A1522019F0A5FF2348E1000C1820795A
:1017A000012803D021A1532019F09BFF6079A17972
:1017B000401CC0B2814200D0607101201749400630
:1017C0008031086010BD70B5164804250068164EBB
:1017D0000004800F1B4C02281AD014A1692019F0B4
:1017E00080FF15E02078C10088190279012A07D10D
:1017F000427983799A4203D0427982717058804746
:101800002078401CC0B22070042801D30020207032
:1018100028466D1EEDB20028E4D170BD80E100E0E5
:1018200080E200E018E400E0B00100207372635C25
:10183000736F635F7369676E616C6C696E672E634B
:10184000000000002200002010B5EFF31080C40754
:10185000E40F72B6C9484178491C417040780128AC
:1018600001D101F067FB002C00D162B610BD70B54C
:10187000C24CE07800280AD10125E570FFF7E4FFAB
:1018800001F060FB002804D0002001F033FB0020B1
:1018900070BDBB48A5714560F9E770B5EFF31080E6
:1018A000C507ED0F72B6B54C6078002803D1B5A11D
:1018B000912019F016FF6078401E60706078002853
:1018C00001D101F03BFB002D00D162B670BD10B517
:1018D000AA48C178002904D000218171C170FFF7A6
:1018E000DCFF002010BD10B5044601F02BFBA3491E
:1018F000C978084000D001202060002010BDF8B554
:10190000024600269D4C3746E67108200421012539
:1019100013001AF007F80D080A0C0E101214161E08
:10192000262123252800657122E0022001E0617153
:101930001EE060711CE01020FBE72020F9E7012683
:1019400016E0FFF781FF01F0FDFA0028FBD0022628
:101950000EE06171E5710BE0102002E0202000E054
:1019600040206071F6E7FF2086A1663019F0B9FECD
:1019700001F0F4FA002809D001F0F6FAB04205D1DE
:10198000304601F0F4FA0028FAD02EE001239B073C
:10199000DD608048476080498E61794A022151604C
:1019A0009D6007617D490A69D243D206D217521C55
:1019B00000920A6910231A430A6100E020BF7548AB
:1019C00040680028FAD0304601F0D1FA0028FAD059
:1019D0000098002804D171480169102291430161E7
:1019E0006749022088606B484760E07900280DD085
:1019F00001F0A8FA009001F00FFA0099684A002956
:101A000002D0A260E06001E0E260A060002E01D0A0
:101A10002771F8BD257100F090F8F8BD10B50446A7
:101A200001F096FA002805D054490120C8704A7880
:101A3000521C4A702046FFF762FF10BDF8B5554DA5
:101A4000A8680026012802D1AE6001F053FA686848
:101A5000012800D16E6028680127484C012812D166
:101A60002E60A079002803D0002001F043FAA6716F
:101A70002078002807D001F065FA002803D0012063
:101A800080070761A770207900282AD028690128DB
:101A900027D12E6180074761E079002815D001F039
:101AA00051FA009001F0B8F90099002901D0E168DD
:101AB00000E0A168411A022901DA8A1C11DC0099B0
:101AC000002901D0E06000E0A060FFF7BDFE01F05A
:101AD00039FA002804D0012080070761A77000E0D0
:101AE0002770E86801280BD1A078002803D125A130
:101AF000F12019F0F6FDEE60A6702670FFF7CDFE1E
:101B0000F8BD10B51D4CE078002801D101F016FA9F
:101B1000012081078861A078002809D01D4CE06869
:101B2000002803D101F023FA0028F8D10020E0605A
:101B300000201349C043886010BDF8B5104819272C
:101B40008760144900200860C86001F0FBF9BD07F8
:101B500001240A4E002802D02C61B47000E03470D9
:101B6000FFF772FE064847600B4970798863AC61E5
:101B70000849002008616C61F8BD000024000020C5
:101B8000000300407372635C736F635F636C6F6329
:101B90006B2E6300000100400005004000ED00E0F6
:101BA000FFFFFF7F8107C90E002808DA0007000F3A
:101BB000083880082E4A80008018C06904E0800838
:101BC0002C4A800080180068C8400006800F7047CB
:101BD00010B50D20FFF7E6FFC4B20420C043FFF7A5
:101BE000E1FFC0B2844203D023A11B2019F079FD8C
:101BF00026490120486010BD0121254A4803106094
:101C0000244B00221A60244A5160244A1060244A5E
:101C100011601F4980390860704701211C4A480340
:101C200010601F4A51601B4A002111601B49086067
:101C3000704710B517490868012804D00EA15E202E
:101C400019F04FFD10BD114880680022C0B20A6033
:101C500003F00AF810BD10B50E4801680029FCD049
:101C6000FFF7E7FF01200D494003086010BD0000A9
:101C700000ED00E000E400E07372635C736F635F8B
:101C800068616C5F726E672E6300000000D50040D3
:101C900080E100E000D1004000D3004080E200E09D
:101CA00000D000400E4A12680C498A420AD11847F7
:101CB0000B4A1268094B9A4204D101B501F08EF823
:101CC00003BC8E4607490968095808470648074972
:101CD000054A064B7047000000000000BEBAFECA6D
:101CE0005C000020040000209010002090100020D4
:101CF00010B57038030019F015FE1B0F15192125BA
:101D0000282F363B4044484C53585F687078818890
:101D10009095999CA2A5AC004A680878114605F0F8
:101D20005FF910BD086805F0B9F910BD0C790B7B9F
:101D30008A680868214605F0C2F910BD086805F0F8
:101D400053FA10BD04F052FF10BD08884A6880B2F3
:101D5000114605F072FB10BD0A790888114680B261
:101D600005F0FEFB10BD087840B205F007FC10BD81
:101D7000088880B205F045FF10BD086805F053FFE4
:101D800010BD086805F0DEFE10BD086805F008FF0C
:101D900010BD088982B209C9194605F05CFF10BD63
:101DA00005C9114605F0A6FF10BD08884A6880B233
:101DB000114607F044F810BD0C790888CB688A6892
:101DC00080B2214607F033F910BD0B7908888A6884
:101DD00080B2194607F0E4FA10BD08884B688A689B
:101DE00080B2194607F053FB10BD08884C68CB68D9
:101DF0008A6880B2214607F0B8FB10BD08884A689F
:101E000080B2114607F0F1FB10BD0B7908880A7A01
:101E100080B2194605F0CBFB10BD088880B205F0F2
:101E2000CBFB10BD086805F0CEFB10BD04F0C2FE70
:101E300010BD8A6809C9194605F02AFC10BD04F0D6
:101E4000A2FE10BD08884A6880B2114605F0D0FC99
:101E500010BD012010BD10B59038030019F062FDCF
:101E60000A060F161D4E242C363F465588888A6870
:101E700083B20888194680B208F075F810BD08884A
:101E80004A6880B2114608F0A9F810BD08884A686F
:101E900080B2114608F0AEF810BD08884A6880B2DA
:101EA000114608F0B4F810BD08884B688A6880B203
:101EB000194608F0BFF810BD088982B2888883B23D
:101EC0000888194680B208F0BEF810BD08894B6832
:101ED00082B20888194680B208F0D4F810BD08888C
:101EE0004A6880B2114608F0DFF810BD888882B2D7
:101EF0000888114680B208F033F910BD08884A6896
:101F000080B2114608F037F910BD012010BD10B5A0
:101F1000A038030019F006FD0D080F182129323BE7
:101F2000424C535D666A72004B6808788A681946AD
:101F300009F08CFD10BD88888A6883B2088819462C
:101F400080B209F092FD10BD08884C68CB688A68A1
:101F500080B2214609F08DFD10BD08884B688A6863
:101F600080B2194609F0A1FD10BD88888A6883B245
:101F70000888194680B209F0ADFD10BD88888A68CE
:101F800083B20888194680B209F0E7FD10BD0888C1
:101F90004A6880B2114609F026FE10BD088982B257
:101FA000888883B20888194680B209F027FE10BDE0
:101FB00008884A6880B2114609F044FE10BD0889BD
:101FC0004C6882B20888CB6880B2214609F0B9FE1D
:101FD00010BD08884C68CB688A6880B2214609F039
:101FE00099FF10BD08680AF020F810BD08884B68FA
:101FF0008A6880B219460AF023F810BD012010BD8E
:1020000001202549C00308602449002008700720EA
:102010002349C0058860704770B5204D0446287874
:10202000A04207D0002C05D0002803D01DA14C20D1
:1020300019F057FB2878A0420ED00021224A1848F8
:102040002C70002C1BD0214B012C06D0022C0DD063
:1020500014A1672019F045FB70BD116002211160C9
:102060005361032109068160416070BD1160032145
:10207000116053610121C9058160416070BD11602B
:1020800011600721C905816070BD10B505A17020E0
:1020900019F027FB10BD000080E100E034000020B3
:1020A00000F50140737461636B5C6C6962735C681A
:1020B000616C5C7372635C68616C5F63636D5F61CC
:1020C00061722E630000000000F50040D001002086
:1020D000FFB50446F74897B003C80A910990607AA3
:1020E000217AF54D4018C6B220886968401C87B235
:1020F000F8B20EF069FC002804D0FF20EFA15730A1
:1021000019F0EFFA38010B906968324609186960D6
:10211000002027690870B8B203F063FC002804D0DF
:10212000FF20E6A16C3019F0DCFA0B9768680BAA67
:10213000C019C01C800880006860A07A217A40180D
:10214000C0B2314600F0F0FC68680B994018C01C22
:10215000800880006860617A0091237AA27A01A9E0
:102160000CF0D4FC002804D0FF20D4A1793019F061
:10217000B8FA69468988D0480B91426837465118A9
:10218000C91C8D08AD0045601898039019990291FB
:102190001A980190209E03460A46009638460399F5
:1021A0000CF0A0FE694608820299009102963A4618
:1021B00004A92846039B0CF0BDFE002804D0FF2094
:1021C000BEA1953019F08DFA6846008ABA4D0B9081
:1021D000696801220818C01DC008C00068602C2171
:1021E000BE480CF0D0FB00F0F5FE6978A8680AF054
:1021F00040FEE868401E07280BD8302269460A7066
:10220000887068460CF047F9002802D00CA80AF044
:1022100006FF00211E22084602F0C6FF04F0A8FEB9
:102220000AF0E2F908F09BFD09AB00220521ACA001
:1022300005F014FC002804D0FF20A0A1CE3019F036
:1022400050FA20460C3009F0E3F8002804D0FF20B3
:102250009AA1CF3019F045FAE3218900A24819F07C
:1022600017F9A1480121417181710621C1711BB08B
:10227000F0BD10B59C4CA078082803D38FA19B48D3
:1022800019F02FFA207870214843001900210173BA
:10229000417BF722C908C900C91C114041730121C3
:1022A000E1700C3010BD70B50E4600211C4619803F
:1022B0001546030019F036FB0723050B1711231DE4
:1022C00023002246294630460AF0E8F970BD22462E
:1022D0002946304604F0FCFA70BD224629463046B5
:1022E00008F0DEFB70BD22462946304607F0DAFCD6
:1022F00070BD22462946304600F08BFC70BD7B48FD
:102300006EA15E3019F0EDF9032070BD70B5764C0A
:10231000E078002818D02078702148430019407BCD
:1023200000254007400F01190879401E08712078E8
:10233000401CC0B22070082800D12570A078401C35
:10234000A07000F0D2FDE57070BD6748C07900282C
:1023500000D08EE7704738B5634DA86800280CD0D0
:10236000FFF7F3FF00285BD07022A968FEF71CFF7F
:10237000FFF7CCFF0020A860EFE7687900284FD076
:10238000FFF777FF044655480CF010FB606000280B
:1023900004D1372049A1000119F0A3F9606809F0C0
:1023A00076FF002811D0204604F084F960780107F8
:1023B00006D5C008C000401C6070FFF7A7FFCCE73F
:1023C000464861680CF0FBFAC7E7444861680CF0C6
:1023D000F6FA684600F0DEFB002821D1FFF749FF3E
:1023E00002460146044668461032083100880CF067
:1023F000F5F92071012803D030A13D4819F071F999
:1024000068460088608020460AF0A7F960780007D7
:1024100007D56078C008C000801C6070FFF776FFA9
:1024200038BD684600880CF0E6F996E710B5224CF6
:10243000E160A0602F48FFF783F9607010BD1E496E
:1024400000200870704770B52B4E0546706A94B036
:102450000C46401C04D1B06AC0430004000C0BD0F1
:10246000306AC007C00F2870706A19F013F8B06A9C
:102470002071000A607114E02B206946087009A9D8
:10248000684609F0DCFE002804D018480BA1C630CD
:1024900019F027F90120287006220AA9204618F011
:1024A00098FF2878002803D06079C0210843607124
:1024B00014B070BD40B9010038000020737461632E
:1024C0006B5C6C6962735C686F73745C7372635C81
:1024D000686F73745F636F72652E6300B0050020D0
:1024E0006E524635780000002402002007020000EA
:1024F000960300005723000080000010F0B595B04F
:102500000D460646FE4C206837460837401C08D169
:102510006068401C05D1A068401C02D1E068401CE6
:1025200011D02068314618F0B5FF6068311D18F0F1
:10253000B1FFA068394618F0ADFFE06831460C31B4
:1025400018F0A8FF24E02B206946087009A9684606
:1025500009F075FE002803D0EA49EB4819F0C1F8EC
:1025600008220AA9304618F034FF2B20694608706B
:1025700009A9684609F063FE002804D0E248E14951
:10258000C01D19F0AEF808220AA9384618F021FF3C
:1025900020692E460836401C08D16069401C05D1D0
:1025A000A069401C02D1E069401C12D02069294674
:1025B00018F070FF6069291D18F06CFFA0693146A2
:1025C00018F068FFE06929460C3118F063FF15B078
:1025D000F0BD2B246846047009A909F030FE0028DC
:1025E00004D0C948C749253019F07BF8082209AF43
:1025F00028460AA918F0EDFE6846047009A909F0FA
:102600001EFE002804D0C048BE492C3019F069F8DD
:102610000822391D304618F0DCFED8E770B5BB4CF7
:102620000546A068002804D0B748B649543019F0D0
:1026300058F8A5603DE710B50CF0DDF8B34CA07973
:10264000002804D0B048AF49C13019F04AF8A07949
:10265000401CC0B2A071012803D1AD484078FFF7FB
:1026600093F810BD70B50446AA4816460D4681423F
:1026700004D1A548A349D03019F033F8012E05D074
:10268000A148A049DF3019F02CF812E7662020702D
:1026900000202076A5830120A0770AE770B51546B3
:1026A0000C460646FFF751FE00280CD0662101704B
:1026B00046800121017621680162A1888184057725
:1026C000FFF724FEF5E61321304604F049FFF0E65B
:1026D00070B505468E480C464068814201D21020F4
:1026E000E7E6284603F0DCFC00280BD028460CF077
:1026F00003F9222118F0D6FE401EC0B2062803D9E5
:10270000801F02E08448D4E6002020700020D0E63C
:10271000F0B50F467E490446087889B0002802D0FB
:10272000082009B0F0BD7D4879498442486001D253
:102730001020F6E7617A227A8E18FF2E65D820885D
:10274000FE2862D8082E01D90420EAE7002800D12B
:102750000A2020802369002B01D10B23DB019C463A
:1027600023610A250B466B439E460D2315465D43A8
:102770004B00CB1806215143C9181B2301910001BE
:1027800059431330069160447544194680086943E3
:10279000800007910390A07AF1B28018C0B200F0D7
:1027A000BBF9010103980818C01C80088000039041
:1027B000627A217AA07A0CF0F0F90146039800952C
:1027C00008180799C01C80088BB2800006990390F6
:1027D00089B2F0B2019A0CF085FB01460398081803
:1027E000C01DC1084A48C900426889183A68396062
:1027F000914201D90C2094E72069D82801D2092000
:102800008FE7A07A617A884201D9072089E7227A86
:10281000606800F054F9060083D10798009583B2F0
:102820000698019A81B22046FFF752FC384C38686E
:102830006168884203D03349394818F052FF0120BB
:10284000207030466DE7F8B5044631480F464068C1
:10285000814208D3002C01D0844204D3E01C8008BC
:102860008000A04201D01020F8BD284881780029BE
:1028700011D0398800914178702251430D18287B7E
:102880000C350007000F3B4600222946FFF70BFDE1
:10289000060004D015E0002038800520F8BD002C8B
:1028A00013D039880098814201D90C260DE0287890
:1028B0003B460007000F22462946FFF7F4FC0600BE
:1028C00005D00C2E01D0002038803046F8BD0F4CCA
:1028D0006078401CC0B26070082801D10020607090
:1028E000A078401EA07068784007400F012820D0D3
:1028F00002281AD003282BD009480249553011E08C
:1029000080000010BC240000F60200002402002019
:1029100038000020FFFF000002300000901000206F
:102920007104000018F0DDFECFE76888FFF783FE32
:10293000CBE7EE4869680CF042F86079401CC0B201
:1029400060710128C1D1EA484078FEF71DFFBCE75D
:10295000E079401CE071B8E7E64A10B5904209D32F
:10296000E34A012464075268A04201D3904201D394
:10297000914201D2102010BD0EF05FF810BDDD4B6A
:1029800010B5994209D3DA4B012464075B68A14270
:1029900001D3994201D39A4201D2102010BD0228DE
:1029A00003D0102801D0092010BD0EF06CF80028CB
:1029B000FAD0052010BDCF4B10B598420DD3CC4BAB
:1029C000012464075B68A04201D3984205D3994271
:1029D00003D3002A03D09A4201D2102010BD0EF07A
:1029E00078F80028FAD0072010BD10B50446C0487A
:1029F00094B04068844202D2102014B010BD0F2061
:102A000008A9087369460BA809F019FC0028F4D13D
:102A10006846007A207068464089608068468089F0
:102A2000A0800020E9E710B500290BD0B04A526819
:102A3000914202D30B68934201D2102010BD8A88C4
:102A4000002A02D008F0E2F910BD092010BDA94A01
:102A500010B5914207D301225207914205D3A44AEF
:102A60005268914201D2102010BD421E1E2A02D887
:102A700000F006F910BD0246203A1F2A02D804F0E1
:102A8000BEF910BD072010BD10B5994A5268914299
:102A900008D3421E1E2A0BD8964A914202D301281F
:102AA00004D101E0102010BD062010BD072010BD8C
:102AB0000246203A1F2AF9D804F016FA10BDF0B5E4
:102AC00000280BD08B4B984207D301235B07984219
:102AD00005D3874B5B68984201D21020F0BD837804
:102AE000467805789B195B198C189C4206D147796A
:102AF0000379C078FF183F18BC4201D00720F0BD11
:102B0000954205D1904203D18E4201D18B4201D032
:102B10000620F0BD0020F0BD02460220002902D0B0
:102B200048008018401D7047F8B51646FF25FFF78E
:102B3000F3FFC4B26E48234642680A216E4802F091
:102B4000FEF920013060FF2600242C36F71C2300FC
:102B500018F0E8FE0A0608060A0A0C0C060606111A
:102B6000664804E0664802E0664800E0664802F015
:102B700004FA054603E06549304618F0B2FDA54267
:102B800003D06249384618F0ACFD641CE4B20A2C4C
:102B9000DDD3F8BDF1B594B03A2008A908736946B1
:102BA0000BA809F04CFB002804D0FF205749E13066
:102BB00018F097FD564E00246D4624E02F19B87D7D
:102BC000C10706D0400704D460004019C08809F04E
:102BD000C9FE494828308079002812D0B87D800786
:102BE0000FD560004019C0880022062109F0D5FEEB
:102BF000002806D060004019C18814980026018082
:102C000005E0641CE4B268460079A042D6D830469C
:102C1000DDE4F7B505460078002700090C463E467E
:102C2000062803D039493B4818F05BFD287E002870
:102C30000ED0012814D037483449213018F051FD06
:102C40000298002C068001D0278066800020FEBDFF
:102C500002270926002C10D0A88BA080A87F0AE0AC
:102C600003271426002C08D06888A080286AE0601A
:102C7000A88C2082287F2072E2E702980680E5E790
:102C80001C4A914207D301225207914205D3184AA8
:102C90005268914201D210207047012811D10A7860
:102CA000022A04D0012A02D01948401C70474878F3
:102CB000002806D0032804D88978002901D00329E8
:102CC00001D907207047022A02D0012A09D104E065
:102CD000022806D1022904D105E0032801D10329E5
:102CE00001D006207047002070470000B00500208A
:102CF0003800002000C00100FC0100204F6C0000E3
:102D000065C60000C12F0000F9080100BC240000C6
:102D1000043000001E02000010B56038030018F0F7
:102D200001FE0A060B10171C23292D34393E05C954
:102D30001146FFF7EDFC10BD05C91146FFF783FDF5
:102D400010BD08884A6880B21146FFF7C1FC10BD6B
:102D500005C91146FFF700FE10BD4B6808788A6868
:102D60001946FFF70CFE10BD8A6809C91946FFF71E
:102D700022FE10BD0868FFF738FE10BD08884A68BB
:102D800080B21146FFF74FFE10BD05C91146FFF78F
:102D90005EFE10BD05C91146FFF776FE10BD01208D
:102DA00010BD0120704710B5B02805D0B12808D05B
:102DB000B2280BD0012010BD088880B209F079FE3E
:102DC00010BD088880B209F093FE10BD08884B68DA
:102DD0008A6880B2194609F09CFE10BD0C4908783B
:102DE0004A78401CC0B2904200D008707047094A2F
:102DF000074820BF40BF20BF417803784370136865
:102E0000002B02D103788B42F3D0002070470000E2
:102E10005100002000E200E0F0B50121184A08034B
:102E20001060184A00231360174B18601748036995
:102E30000569DB43DB06DB17102425430561144DD0
:102E40006960144E31605B1C00E020BF1768002FE2
:102E5000FBD0002B02D10369A34303610E488068B5
:102E60007160A960002111600121074A0903116006
:102E7000F0BD10B50446FFF7CFFF2060002010BD65
:102E800080E100E000C1004080E200E000ED00E0F1
:102E900000C3004000C0004000C5004070B51F499D
:102EA0000A68002A17D000231D4601244A68521CD4
:102EB0004A600A2A00D34D600E792246B2400E685D
:102EC00016420AD072B60B6893430B6062B649682B
:102ED0000160002070BD052070BD5B1C0A2BE5D38E
:102EE0000FA1362018F0FDFBF5E701201049800501
:102EF00008607047EFF31081CA07D20F72B6012144
:102F000081400648036819430160002A00D162B677
:102F1000EBE7024800210160416070475400002047
:102F20007372635C736F635F6576742E6300000079
:102F300000E200E00120810708607047012081075E
:102F4000486070471048C068C00700D00120704733
:102F50000D488068C00700D0012070470A484069CA
:102F6000C00700D0012070470748C0697047064974
:102F70008A69D20306D589698907890F814201D1FF
:102F800001207047002070470004004010B5014642
:102F90002022084818F01DFA06490020C877084684
:102FA00010BD0548054A0168914201D10021016028
:102FB000704700007C0900205C000020BEBAFECAF9
:102FC00070B50C46054602F06DFC214628460FF010
:102FD0004AF970BD10B50FF0EBFA01F083FDFFF771
:102FE0000FF80DF0D5FE0FF0E7F90FF067FA10BDFE
:102FF0007047704770477047704770477047704719
:1030000010FFFFFFDBE5B15100C001007300FFFFBF
:1030100003B40148019001BD09000020F8B5FE4C41
:10302000207EE17D88421CD00126FC4D0027E07DFA
:10303000215C14200A4642435019037C052B11D011
:10304000037C062B1CD0037C072B28D0437C012B50
:1030500033D0F3A1F54818F044FB207EE17D88428F
:10306000E5D1F8BD0674E07D162807D0E07D401C50
:10307000E075491CC8B2AA5802210CE00020F7E70D
:103080000674E07D162808D0E07D401CE075491CE0
:10309000C8B2AA5803219047DFE70020F6E706747C
:1030A000E07D162807D0E07D401CE075491CC8B2C1
:1030B000AA580821EFE70020F7E74774E07D1628BB
:1030C00007D0E07D401CE075491CC8B2AA58072112
:1030D000E1E70020F7E770B50024D54E0C207072B0
:1030E000D44825464473047328300476C475D24806
:1030F0000DF021FED1480575F572D149601E88603A
:103100007571B570F57035717570CE48E839057018
:1031100045701420604340180574641CE4B20B2C05
:10312000F7D30120FEF780F90020FEF77DF901209A
:10313000B071FEF7F3FAC448FEF702FBC34C2070EF
:10314000C348FEF7FDFA6070FEF70EF970BD10B5CA
:10315000FEF735F9BD4C2078FEF710FB6078FEF7DE
:103160000DFBB34C207A002803D0FEF796FB00201D
:10317000207210BDF8B5FEF7E2F9AD4D0446A8790E
:10318000002804D0A6A1B34818F0ABFAF8BDE87A3D
:10319000002803D1A2A1B04818F0A3FAA84F012338
:1031A0007969AE4A601A9B0598420ED30E1B9E4267
:1031B0000BD3904203D9501A0019401C05E09642E7
:1031C00035D9101B4018401C4042002803DB94A155
:1031D000A34818F086FA0126AE710024EC72687AD2
:1031E0000421142250438D4A80180174B868401C91
:1031F00004D0481FB8600120FEF716F90020FEF742
:1032000013F9FEF7F7F80DF0CDFEFEF7F8F9954843
:103210000460046001209449C0030860FEF770FA5E
:103220008848007802280AD0032805D009E08FA139
:10323000914818F056FACAE7E878002801D0AE7035
:1032400000E0AC70FEF7C7F9F8BD034673490B20E8
:10325000142242435218203A127F002A04D0401E02
:103260000006000EF4D170471422424351180A465A
:10327000803AD366012220390A777047012805D0A9
:10328000032805D1002903D1002070470029FBD075
:1032900010B4674C002363706A4A002890700CD009
:1032A00002280AD007291AD20800784400790018A9
:1032B00087441505070D0F111300D37003E01B2081
:1032C00000E03A20D0700120607010BC7047582098
:1032D000F8E77720F6E79620F4E7B520F2E710BC90
:1032E0000020704710B557484078FEF790F980B23B
:1032F00010BD411E1422504310B5484A8418203C8A
:103300000A2902D8207F002803D145A15B4818F084
:10331000E8F9207F012803D041A1594818F0E1F9CC
:103320000020207710BD70B5424C607B217B884225
:1033300001D1012500E00025FEF701F9FEF767F94C
:10334000617B227B914201D1012100E00021A94251
:10335000EBD170BDF7B50646481E84468EB0C0B2AC
:103360001422059050432D4A85180495287C2D1D64
:1033700007282AD1284C0027E07D227E824221D0D6
:10338000235C059A934201D1012701E0002F04D06C
:10339000162811D0421CA25C225416280ED0401CC4
:1033A000227EC0B28242EBD1002F0BD0207E0028BB
:1033B00006D0207E401E04E00022ECE70020EFE76C
:1033C000162020760498012202746046184C0A28C0
:1033D00013D814204143114808182038007F0028D2
:1033E0000BD00498007C01280BD00498007C0128A5
:1033F00003D01098807A012807D009A1214818F03D
:1034000070F91098807A01287AD10498034B007CD7
:10341000022850D0004C37E0C8070020E407002005
:103420007372635C72656D2E63000000DA05000044
:10343000EC080020A0070020F8080020B0070020BA
:10344000CC0800204A0000205B4E0000480000200D
:103450001D300000830200005F020000FFFFFF003C
:103460006202000000F5004080E200E07372635CDD
:1034700072656D2E6300000019070000D102000084
:10348000D20200001B030000207E162844D0207EBC
:10349000E17D401C884204D16520FEA1C00018F0E7
:1034A00020F9049901204874217E05986054207EFB
:1034B000162835D036E0607A059A0146904206D04B
:1034C000014614277843C018807C9042F8D1627A74
:1034D000824208D1617A14225143C918897C6172F1
:1034E0000121A17207E014224243D2181427794324
:1034F000927CC9188A7414220C215043C01881741C
:103500001098007A06281DD20100794409794918DB
:103510008F440C161412100EE07D0028BCD0C0E7BA
:10352000002001E0207E401C2076B5E000210FE065
:10353000B4210DE073210BE0322109E00A2107E0FC
:10354000062105E0FF20D649E03018F0CAF8002136
:10355000109802910068401A28601099097A002991
:1035600012D00221401A0102090A2960109802684B
:10357000406810180002000A68601098807A0228DB
:10358000109803D0007B71E00421EBE7007A00285B
:1035900012D0022202981218109843681046103078
:1035A00018180A90BF48029B4078984202D9E378E5
:1035B000002B03D00A9805E00422EBE7029BC31A14
:1035C0000A981818637A10300C2B1CD0637A1427D1
:1035D0007B43B54FDB195B68994214D0B34F617AD6
:1035E000BC4614235943B04BC9184B6889689B1BD0
:1035F000891B1B0209021B0A090A984237D8634536
:1036000035D8614533D831180A980123081A0002C9
:10361000000A286010998018C9680002000A471A39
:10362000A34A9B05BC469F4201D2384610E00F1AC0
:103630009F4201D260460BE0944503D9511A081805
:10364000401C05E0974206D9101A4018401C404221
:1036500000285FDC03E09249964818F042F8296898
:103660000A9808180002000A68600020287268683A
:10367000102710300002000A68601098407AA87283
:103680001098007A687203280ED200280CD0FFF739
:1036900059FC002803D007E0002011B0F0BD0298CB
:1036A00042210F1A322002907E490878012801D069
:1036B000032809D148780299884205D9E178002980
:1036C00002D10299401AC7196B6828689B1B801B9E
:1036D0009C4601021B02754A090A1B0A8F4219D82F
:1036E0001746914216D8BB4214D8617A0C2915D0DE
:1036F000677A61460C220392009214226A4B7A4345
:10370000D21893689B1B834216D80397977C0C2F83
:10371000F3D173E0059801F055F9BDE70498022252
:1037200005990274627A0C2A00D0627A82746172FE
:103730000120A07211B0F0BD0C2F5FD000223846DE
:1037400094461422584B4243D21853689B1B8B4219
:1037500025D2907BAB7A98421BD804980521059D11
:103760000174554C207E16280FD0207EE17D401C30
:10377000884203D14A49514817F0B3FF207E2554AF
:10378000207E162800D0CDE6CAE6E07D0028F1D0E4
:10379000F4E701208446907C0C28D2D102E06146F7
:1037A00000292AD03D46009014202A4642433E4834
:1037B0000621161831741C38007E16283E4816D093
:1037C000017EC07D491C814203D132A13C4817F0E3
:1037D00088FF3948017E4554017E16290BD0017EB1
:1037E000491C0176B57C0098A842DDD106E0C07D79
:1037F0000028EAD0EDE70021F3E7009704990220C2
:10380000294D0874607AB84207D1049900988874E9
:10381000059860720120A07221E003980C2F0FD050
:103820000C2803D11BA1274817F05BFF0398142233
:1038300050434019059981740499009888740EE0EA
:103840000C2803D113A1204817F04BFF0398142232
:10385000504340190599817404990C208874012003
:1038600011B0F0BD70B50D46184A441900210B4641
:10387000101A8B4103D20A49154817F032FF154838
:10388000854204DDFF200649800017F02AFF124818
:10389000854223E07372635C72656D2E63000000E5
:1038A0006C3400004A000020E4070020FFFF3F00C6
:1038B000FFFFFF0019070000C807002007020000F3
:1038C000CB030000E3030000E9030000FF7F841E38
:1038D000FB0300000020A10700E05EF803DAFE49C8
:1038E000FE4817F0FEFEFE48844205DA002C01DB9C
:1038F000204670BDFA4800E0FA48201870BD401E0E
:1039000070B5C0B214214843F7494418607B0628BB
:1039100013D201007944097949188F44020C0A082E
:10392000060400203DE0B42010E073200EE03220B9
:103930000CE00A200AE0062008E0FF20E649E0301B
:1039400017F0CFFE617B002000292AD00221401809
:10395000616840180002000AFDF759FE0C25655702
:10396000E24A441900210B46101A8B4103D2DA496E
:10397000DF4817F0B6FEDF48854204DDFF20D64958
:10398000800017F0AEFEDC48854203DAD249D34806
:1039900017F0A7FED248844207DA002C03DB20464A
:1039A00070BD0421D3E7CE4800E0CE48201870BD9A
:1039B000F0B5064683B0D1480190457A0295346847
:1039C0007068001B0702CE483F0A001B00900C2DB8
:1039D0002DD0142029464143C348012208188446AB
:1039E0004168C74892058646081B904210D3631A67
:1039F00093420DD302467046724503D90098401891
:103A0000401C05E073450ED9411A0819401C40427C
:103A100000280CDA60460295857C0198C079002860
:103A2000D5D003B0F0BDAC49B64817F05AFE0298A5
:103A3000854226D014214843AB4901234018029007
:103A40008068AF499B058C46011B8646994210D37E
:103A5000221A9A420DD36346614503D900997144F5
:103A6000491C06E0194662452DD9091A0819401C5F
:103A70004142002905DD0298B17A807B814200D362
:103A800074460C2D15D09849142045436818426897
:103A9000121B1202120ABA420BD2B37A827B9342F1
:103AA00000D38468857C0198C0790028B9D10C2D99
:103AB000EAD13068A042B4D0E0190002000A3460B4
:103AC000706003B0F0BD84498E4817F00AFED8E755
:103AD000F0B58D490446486885B0C005C00D1CD0BE
:103AE000103840B200280CDA0207120F083A920888
:103AF00092005118C9698007C00EC1400806800FA6
:103B000009E08108814A8900891809688007C00E88
:103B1000C1400806800F002808D000272078002820
:103B200006D0012804D0002005B0F0BD0127F5E73C
:103B30002079062813D201007944097949188F4465
:103B4000020C0A080604002018E0B42010E07320DC
:103B50000EE032200CE00A200AE0062008E0FF20F8
:103B60005D49E03017F0BDFD21790020002905D026
:103B700002214618614D002F02D003E00421F8E72E
:103B80000020E871694602AAA068FDF74BFD69466E
:103B900008228A56E06801A980180122C01C1F284B
:103BA00001DA019209E003AAFDF73CFD6846007BBB
:103BB000002802D00198401C0190009901984018FB
:103BC00010300002000A0190881B0002000A0090D9
:103BD00060796946887200980390FDF7B0FC009AFE
:103BE000019B121A181A4A4912020002120A000A0C
:103BF0008A4216D8884214D86846FFF7D9FE009941
:103C00000398814205D088190002000AFDF7FFFCE5
:103C1000A0600120E979002986D0002FB0D005B03E
:103C2000F0BD0020F6E7F3B58FB03A480C460B9094
:103C30000DF089F8384A0F99304F5618374D203E0D
:103C400000280BD03648007D002803D035A1384825
:103C500017F047FD2078012872D060E1687B1628B4
:103C60000CD0687B297B401C884203D12DA13148B0
:103C700017F037FD2078012804D00CE0287B0028BD
:103C8000F4D0F7E7F07F002803D026A12A4817F0E8
:103C900028FD0120F077697B0F981422274E5143AD
:103CA000891908742078022858D0687B1421484369
:103CB0008619207930726079707232460C32314642
:103CC000A068FDF7AFFC0C2030560F283ADD1F38F6
:103CD00030733068401C34E06C340000FD03000099
:103CE0000080841E00807BE1E4070020FF7F841EAB
:103CF000FB0300000020A10700E05EF8EC080020B4
:103D0000FFFFFF001907000000ED00E000E400E005
:103D1000FFFF3F00F8080020C0080020A007002097
:103D2000B00700207372635C72656D2E6300000043
:103D300017050000F5040000FA040000E00500206B
:103D4000E4E030600C217156301DE268019050189B
:103D5000C01C1F286FDA01200199C8E0FA494868A1
:103D6000C005C00D20D0103840B200280CDA020780
:103D7000120F083A920892005118C9698007C00EC4
:103D8000C1400806800F09E08108F04A89008918BF
:103D900009688007C00EC1400806800F002803D1C3
:103DA000EBA1EE4817F09DFC687B1421484386196F
:103DB0000021E0686A460691117006A9FDF732FC01
:103DC0006A46002010560F2801DD012000E0002087
:103DD0000699401807900220B072207930726079FD
:103DE0007072A068311DC01C06911F2801DA0120E5
:103DF00009E0FDF717FC68460078002804D0069813
:103E000006990068401C0860307A062814D2010028
:103E10007944097949188F44020C0A0806040020E5
:103E200010E0B4200EE073200CE032200AE00A20FB
:103E300008E0062006E04EE0FF20C949E03017F018
:103E400050FC00202179002943D00221401806901F
:103E50007168103008180799089009180698081A10
:103E60000C900020F871FDF76AFB0446306007985B
:103E700020180002000AF060787A0C2825D0797AA0
:103E800014204143B7480818406808990290401828
:103E90000002000A0390707A6946887402A8FFF74E
:103EA00087FD0299039A091B121B09021202AE4BED
:103EB000090A120A0C98994207D8824205D8029939
:103EC000069808180002000A3060F8790028C8D166
:103ED00010E00421BAE704AA0199FDF7A3FB6846A4
:103EE000007C002804D0019801990068401C0860FB
:103EF0002078B072687B162806D0687B401C6873F7
:103F00000B980CF038FF46E00020F8E7F07F00281F
:103F100003D08FA1954817F0E4FB0120F077944976
:103F20000F9808742078022803D189A1914817F0CE
:103F3000D8FB8F4E207930726079707232460C3225
:103F40003146A068FDF76EFB0C2030560F2804DDCB
:103F50001F3830733068401C30600C22B256301D60
:103F6000E16801908818C01C1F2802DA012001991D
:103F70000BE003AA0199FDF755FB6846007B00287A
:103F800004D0019801990068401C08602078B07244
:103F9000774901200875687B297B884224D07C7A88
:103FA0000C2C23D0FDF7CBFA14214C436D4961183A
:103FB0000A7C042A18D00A7C032A15D04B68896829
:103FC0001B1A081A1B020002674A1B0A000A102B60
:103FD0000AD31146934207D8884205D8687B297BCB
:103FE000884201D0FDF7F7FA11B0F0BD687B297B5C
:103FF0008842F7D111B0F0BD10B50020FDF701FAED
:1040000010BD10B50120FDF7FCF910BD5A4800782D
:104010007047F1B5009802281ED0584C607A0C28E1
:1040200003D14BA1564817F05CFB0026A671012571
:10403000E572607A032114224A4F5043C01901747B
:10404000FDF7CEFA009800280BD0012829D00328CC
:1040500079D03FA14B4844E047480078FDF794FBF6
:10406000F8BD4948007F002803D039A1474817F020
:1040700038FB6571444D00202E60FDF7D5F9A96825
:10408000481C04D0012300221846FDF703FA607A89
:10409000617A401CC0B2142251437A5801219047E2
:1040A000F8BD0120FDF7C0F9607900280DD0364831
:1040B0008068401C09D0607A617A401CC0B214222A
:1040C00051437A5806219047F8BD2F48007F0128B8
:1040D0000AD0022812D0032822D004285AD01CA1CA
:1040E0002B4817F0FEFAF8BD2079002803D026717E
:1040F000FDF77BFAE57024480677F8BD207A0028A2
:1041000002D1FDF7A1FB2572607A617A401CC0B232
:10411000142251437A58002190471B480677F8BD76
:10412000194F0123397B78680022411A1846FDF7A0
:10413000B1F92079002803D02671FDF756FAE57011
:1041400002203877F8BD3FE000ED00E000E400E039
:104150007372635C72656D2E6300000006050000DB
:104160006C340000E4070020FFFF3F001E05000044
:10417000B00700202405000048000020EC080020C3
:104180005A050000AD050000CC08002066050000BF
:10419000A1050000FA4E217870680123411A00221F
:1041A0001846FDF777F9207A002802D1FDF74CFB7D
:1041B0002572607A617A401CC0B2142251437A5849
:1041C000002190473577F8BD607A617A401CC0B213
:1041D000142251437A5805219047F8BD10B5E94C97
:1041E000607A0C2803D1E8A1EA4817F07AFA607ADD
:1041F000617A401CC0B214225143E74A525804214C
:10420000904710BDF0B583B00C200290FDF797F9F0
:10421000DC4C0090617AE14801900C2920D0617A51
:1042200014204143DC480918097C042918D0617A1C
:10423000142251430818007C032870D0019900987B
:104240000B6849681B1A081A1B020002D44A1B0A91
:10425000000A102B63D31146934260D888425ED87F
:10426000C7488068401C04D05F20C7A1000117F038
:1042700038FA00206071607A0C2807D16078002835
:1042800004D0C848C178417081780170607A0C28E8
:1042900015D0607A1421C04A48438018007C042855
:1042A0000DD1607A0290607A01211423584380185E
:1042B0000174607A58438018807C6072A172BA4D94
:1042C000687B297BB94F884233D0B94E287B1421B3
:1042D00048438019007CC05D0128287B06D04843F4
:1042E0008019007CC05D02282FD044E0142148438F
:1042F0008019807A01280AD0287B02211422504399
:104300008019007CC155287B162809D00AE0287B3B
:104310000021142250438019007CC1552BE0E7E1B5
:10432000002001E0287B401C2873687B297B8842A1
:10433000CCD1A04D287D00284CD0287CC15D01291E
:1043400028D0C05D022830D03AE0287B14214843B1
:104350008019807A012803D08BA1974817F0C1F902
:10436000297B00201422514389198872297B5143EB
:104370008919097CC855287B142148438219287B58
:1043800048438019017C0098FEF7E4FF287B16283B
:10439000C8D1C5E7A97A012904D00221C15500205E
:1043A00028750DE00021C1550AE0A87A012803D044
:1043B00075A1824817F095F90020A872297CC8558C
:1043C000287D002806D0297C7A4A0098FEF7C2FF93
:1043D0000020287502980C281FD0142148436E49EC
:1043E0004018017C012918D107210174744D287EE1
:1043F00016283DD0287EE97D401C884204D1192032
:1044000061A1800117F06DF9297E02986854287E19
:10441000162831D0287E401C2876607A0C287DD062
:10442000A07A00287BD00020A072617A142041433A
:1044300059480E186349B56873680A46F6687C32B5
:10444000CB67966055604E4D697E002916D00226D6
:10445000617A1422504851430818407B06281BD229
:1044600001007944097949188F440A1412100E0C7E
:10447000E87D0028C3D0C7E70020CDE70426E7E7A2
:1044800000210FE0B4210DE073210BE0322109E09F
:104490000A2107E0062105E0FF204B49E03017F034
:1044A00020F900212973687E022801D0012810D14B
:1044B0002869009A4018821A1202120A422A08D960
:1044C0003238032100026976000A286132202873FD
:1044D00008E0322906D2207A00280AD1FDF7B4F983
:1044E000012005E0207A002803D0FDF7D6F900204E
:1044F00020722C491022487820700978012901D0B7
:10450000032906D101212171297B884201D9421A50
:104510001032A378002B00D0921C01E0B4E0C2E07E
:104520002179002901D1002B6FD094461C4A0099B3
:104530000092019A176852687F1A511A3F020902C5
:104540003F0A090ABC4541D8154A97423ED8009A0D
:1045500091423BD8297B884249D92B69421A9A1A41
:104560001202120A101880190002000A2A616860FB
:1045700000293AD0032028770006000E65D173E0A9
:10458000CC080020EC0800207372635C72656D2E0D
:1045900063000000B4050000E4070020DC080020F0
:1045A000FFFF3F004A000020A0070020BF080020B6
:1045B000E0050020B0070020120600002E060000D3
:1045C000C8070020600800206C3400000020207123
:1045D000A070297B002926D0286940188019000284
:1045E000000A6860022028772FE00120C3E781429B
:1045F0000CD92A69511889190902090A6960002829
:1046000001D00420B7E70220B5E713E0002B03D167
:10461000FBA1FE4817F065F8286980190002000A1E
:104620006860002004E0296989190902090A6960A3
:10463000287719E0287B00280FD0296908188019ED
:104640000002000A68600220287728690123811986
:1046500000221846FCF71EFF09E0286980190002B5
:10466000000A6860002028770120FCF7DDFE607AF0
:1046700014214843E6490C224018825601230020A9
:104680006968FCF707FF0EE00120FCF7CDFE002073
:10469000FCF7CAFEFCF7AEFE207A002803D0FDF737
:1046A000FCF800202072A078002804D0FCF79DFFC1
:1046B0000020E070A0706078002804D0D548C17850
:1046C0004170817801702079002806D00020D149FE
:1046D000E0700978002900D12071CF48017EC07DAB
:1046E000814203D0CD484078FDF74EF80120E071BB
:1046F00003B0F0BDF0B5CA4C0746607A83B00C2811
:1047000003D1BFA1C74816F0ECFF607A1421C04E58
:1047100048438019007C032803D0B9A1C24816F091
:10472000E0FFC24DA868401C03D0B5A1C04816F0F8
:10473000D8FF607A1421484381190C2008560021C3
:104740006A4600911171C01901AA6946FCF76AFF17
:104750006A46042010560F2801DD012000E00020E9
:1047600000994018696840180102090AA960607937
:10477000002804D0012300221846FCF78BFE03B06A
:10478000F0BD70B5AC4CAB4A0B1AA34214D3451A1A
:10479000A54211D3934203D9101A43185B1C0BE0B6
:1047A000954204D9511A0818401C434204E0A34919
:1047B000A34816F096FF0023184670BD10B50146B9
:1047C000012300220220FCF765FE10BD10B5022077
:1047D000FCF72AFE10BD10B5FCF7B1FE10BDF0B518
:1047E0008F4D0446E87A83B0002804D1E72084A1E5
:1047F000C00016F076FF642C4DD39249002002468B
:10480000091B824147D39048417B007B814242D1C2
:104810008E48007D00283ED1687A14217C4F4843A1
:10482000824EC519306801AA00196946FCF7FAFEE4
:10483000694604200856002802DD0098401C0090BC
:10484000A96800986B680A18D21A1202804B120AE3
:104850009A4220D8AA7C0C2A08D014235A43D21991
:104860005268511A0902090A814214D3B068401CE7
:1048700005D00120FCF7D8FD0020C043B0603068AF
:1048800000193060A868009940180002000A7061A1
:10489000012003B0F0BD002003B0F0BDF8B506461E
:1048A000401EC5B214205A4968434418207C002891
:1048B00003D153A1674816F014FF6348017B407B86
:1048C00081420CD0644A14234B439B181B7CB34297
:1048D0000CD016290CD0491CC9B28142F3D15B48D7
:1048E000017D002964D0007CB04261D10020F8BD78
:1048F0000021F1E7217C052905D0217C062902D081
:10490000217C072928D101212174C17D0023027E49
:104910008A4221D00246565CAE4201D1012301E019
:10492000002B04D0162911D04E1C965D5654162922
:104930000ED0491C167EC9B28E42ECD1002B0BD092
:10494000117E002906D0117E491E04E00026ECE706
:104950000021EFE716211176617C00292AD06774C7
:10496000C17D0023027E8A4224D0425CAA4201D14A
:10497000012301E0002B04D0162912D04A1C825CCE
:10498000425416290FD0491C027EC9B28A42ECD18A
:10499000002B0FD0027E0146002A06D00A7E521E4E
:1049A00004E00022EBE70021EEE716220A7601E0A0
:1049B00019480027217C01299CD1617C002999D1CB
:1049C0000120F8BD70B505461420114A0521684341
:1049D00080180174104C207E162841D0207EE17D85
:1049E000401C884203D115491C4816F07AFE207EEF
:1049F0002554207E162837D0207E401C207670BD9E
:104A00007372635C72656D2E630000009206000095
:104A1000E40700204A000020C807002048000020CA
:104A2000EC080020F5060000F6060000CC08002087
:104A3000F7060000FF7F841E0020A1076C340000F1
:104A400019070000FF1FA107A0070020B0070020E2
:104A5000FFFF3F0074070000E00500200702000090
:104A6000E07D0028BFD0C2E70020C7E78107C90E5C
:104A7000002808DA0007000F08388008C24A8000C2
:104A80008018C06904E08008C04A8000801800686F
:104A9000C8400006800F7047BD4948788978884231
:104AA00001D3401A02E02122511A0818C0B27047FF
:104AB000B749233148788978884201D3401A02E007
:104AC0002122511A0818C0B27047B14946314878BE
:104AD0008978884201D3401A02E02122511A08182D
:104AE000C0B27047A94910B50C310868FF22120204
:104AF00090430122D20310430860A54900202331CE
:104B000048708870233948708870463148708870C2
:104B1000A0480CF010F99F48401C0CF00CF9FDF770
:104B200057F800F028F910BD20207047B4E770B5A1
:104B30000C4605460026FFF7AFFF9549A04214D367
:104B40000A46203A00232046641EE4B200280BD017
:104B50008878105C287088786D1C401CC0B2887002
:104B60002128F0D18B70EEE7012600F004F93046E1
:104B700070BD202070479BE770B50C4605460026A7
:104B8000FFF796FF82492331A04214D30A46203A08
:104B900000232046641EE4B200280BD08878105C05
:104BA000287088786D1C401CC0B288702128F0D114
:104BB0008B70EEE7012600F0DEF8304670BD202154
:104BC00001700020704710B50446FFF77EFF20708B
:104BD000002010BD70B50C460546FFF776FF6C4906
:104BE0004631A04215D30A46203A00232046641ECF
:104BF000E4B200280BD08878105C287088786D1C8F
:104C0000401CC0B288702128F0D18B70EEE70024E0
:104C100000E0614C00F0AFF8204670BD70B50C4666
:104C20000546212904D9FF205CA1473016F059FD23
:104C300055484068103840B2FFF718FFC6B20D2043
:104C4000FFF714FFC0B2864207D2FF2053A14D30B8
:104C500016F047FD01E0FCF7FEFF21462846FFF76E
:104C600066FF0028F7D070BDF8B507464948484CA4
:104C7000401E474E0078254646362335002806D18B
:104C8000A9786878212200F06BF800280ED0A1786E
:104C90006078212200F064F8002814D0B178707890
:104CA000212200F05DF8002828D033E038496878E8
:104CB000C91C0F546878401CC0B26870212829D1E3
:104CC0000020687026E03249607820390F546078FF
:104CD000401CC0B26070212801D1002060702D4FAF
:104CE0007F1E3878002815D0A1786078212200F046
:104CF00037F800280ED0002038700BE02449707877
:104D000026310F547078401CC0B27070212801D138
:104D100000207070A9786878212200F021F800281E
:104D20001DD0A1786078212200F01AF8002816D052
:104D3000B1787078212200F013F800280FD0FCF72A
:104D40006CFF14480BF0FFFF01214903884203D098
:104D500016A1C12016F0C5FC0E480CF00CF8F8BDE9
:104D6000401C884205D0904201D1002901D000208A
:104D700070470120704710B506480BF0E4FF00288B
:104D800001D1FCF739FF10BD00ED00E000E400E0C8
:104D90001C0900204F000020072000007372635C94
:104DA000736F635F72616E642E6300007372635C85
:104DB000736F635F72616E642E630000FEB5F54C25
:104DC00007466068FF213E0181552178FF2913D0F5
:104DD0000901083141583246491E08320902019240
:104DE000090A805800F0CCF9002802D02478254622
:104DF00015E06168207888552770FEBDE548426857
:104E000001981158280100900830105800F0B8F9A6
:104E1000002806D1DF482C46416800980D5CFF2D24
:104E2000ECD1DC482101406885554754FEBD70B582
:104E3000D84A04460020157A53680AE00201561C3D
:104E40009E5DA64203D10C329A588A4204D0401C7F
:104E5000C0B28542F2D8FF2070BDF8B5CD4F3E7884
:104E6000FFF7B9FC0146FF2E68D03401254678686B
:104E70000835405900F084F9022802D97868405971
:104E80005AE0C4494868025D0A70A11C425C002ACD
:104E90000CD0521E425441590122D20589180902F0
:104EA000090A41513046FFF789FF30E0631CC25CBC
:104EB0000092221D94468258002A10D001239B02A2
:104EC0009A420FD99205920D43595703DB191B02E1
:104ED0001B0A43516346C3589A1A920A09E0FF21FC
:104EE000C1540AE0435952039A181202120A42515D
:104EF000002242543046FFF761FFA6480C34416857
:104F0000C268009809598000125800989047A14C37
:104F10002078FF2812D0FFF75EFC014620786268F7
:104F200000010830105800F02BF9012896D920789C
:104F30006168000108300858FFF740FCF8BDF8B57B
:104F40001C4615460E460746FF2B03D392A1D320DD
:104F500016F0C7FB8F48FF21C760456004720674D6
:104F6000017000224270104604E00201521C401CF5
:104F7000A954C0B2A042F8D3F8BD70B5854C06461E
:104F80006578207C854203D383A1E62016F0A9FB37
:104F9000E068A90046506078401C6070284670BDEB
:104FA000FFB581B01D46FF24FFF715FC794F06467B
:104FB00079780198814203D877A1F42016F091FB0B
:104FC00074480021037A406810E00A019446521C9C
:104FD000825CFF2A24D0019FBA4205D162460C327E
:104FE0008758029A97421DD0491CC9B28B42ECD80F
:104FF000FF2C17D021014B1C019AC2540B33029A8B
:10500000C250039B634F0022012B0ED00B1DC250D8
:1050100001239B029D4216D9AA05920D08D008E0F3
:105020000C46E1E7FF2005B0F0BD0B1DC550EFE7D2
:105030001A4653039B190E461B0208361B0AAA1A6E
:105040008351920A09E0002D00D101256B039B19C1
:105050001D022D0A0B460833C550891C42543D469B
:105060003E782046FFF7AAFE2878B04217D0FFF717
:10507000B2FB014628786A6800010830105800F039
:105080007FF8012807D92878696800010830085896
:10509000FFF794FB03E0FEF7B9FFFCF775FB0198FF
:1050A000C1E770B50C460546FFF795FB064621465D
:1050B0002846FFF7BCFEFF2817D0364D04012046D6
:1050C000696808300858314600F05AF80121090390
:1050D00040186968A41C095D400B002901D08902B1
:1050E0000818002800D1012070BD002070BDF3B564
:1050F00081B00F460198FFF79AFEFF282AD0254D70
:105100002E7869683246344604E0844205D026464B
:105110002301CC5CFF2CF8D11CE0FF2C1AD0A64256
:1051200021D11001085C2870FF281AD0FFF753FB2B
:105130002A780146120168680832805800F020F889
:10514000012809D928786968000108300858FFF754
:1051500035FB08E00020FEBDFEF758FFFCF714FB0E
:1051600001E0FFF733FB39460198FFF79AFF220170
:105170006968FF23541C0B558A5C3301CA54FEBD79
:10518000401A00020121000AC905884200D9002006
:1051900070470000680900207372635C736F635F7F
:1051A00074696D65722E630010B5FE4B58601972FC
:1051B0001A80C90016F06CF910BD002101807047FB
:1051C00010B50022D24302800320FFF790FF10BDEC
:1051D0007047F0B50E460446017801208840F24938
:1051E00099B008400090616815460888EF4A9042DF
:1051F00006D0009A002A06D0EB4A521E104202D076
:10520000012019B0F0BD009A10430880002D12D083
:10521000002028702178EA1C0027681C01920B00EE
:1052200016F080FB10F30E16233A59616F3CB4B0B0
:105230008AB8F2F1F0F320780B28EBD00420E0E7F5
:1052400002212970A1890170090A4170032097E0A9
:1052500004212970A1890170090A41700198E1892E
:105260000170090A417005208AE006212970A18990
:105270000170090A41700199E2890A70120A4A70A4
:10528000218A0171090A4171A28AE81DA16916F0FB
:10529000A0F8A08AC01D73E0082129702178082990
:1052A00001D110212970A1890170090A417001986A
:1052B000E1890170090A41700520308020466A1D8D
:1052C00002A910300BF005FC00287DD1694630881A
:1052D000097A401854E00A212970A1890170090A4D
:1052E000417003200BE00C212970A1890170090A8B
:1052F00041700198E1890170090A417005203080F0
:105300009CE0A08984464000401C81B230888842DD
:105310005AD3052958D30E202870002008E02369AD
:1053200042009B5A521953701B0A401C937080B262
:105330006045F4D33180B9E09A48417A002973D0AE
:10534000491E4172217B4068C9004518A988286818
:10535000082240180838216916F03BF802216846F7
:1053600001710021417128680390A9886846018174
:10537000002101A804F00CFC0020A880002E00D021
:10538000308093E0297880221143297029784022C7
:105390001143297029788909890112312970A1895D
:1053A0000170090A4170E289E81C216916F011F8C0
:1053B000E089C01C3080287841063FD5C00975D0EF
:1053C00001216846017200E02CE000214172318821
:1053D000091D81810495E189019808180590001D37
:1053E00006907048017A68460177002102A804F00F
:1053F000CFFB074630880C303080022F06D0002FBC
:1054000054D065E03DE033E01CE05EE0654869466D
:10541000097F4268CB00D218037A994202D2918860
:10542000002902D0042753E02FE0417A491C417241
:105430001560308890800020308049E06168A08944
:10544000888033E029788909890116312970A1897A
:105450000170090A41700198E1890170090A4170DF
:10546000228A681D616915F0B4FF208A401D46E755
:1054700028788009800118302870207B687002200D
:105480007EE760680188090401D4052720E0C08810
:10549000A189884201D006271AE01E202870012029
:1054A0003080606801884904490C01800098002818
:1054B0000ED03C4800220088A16883000320FFF73B
:1054C0006FFD61682078887007E000203080032736
:1054D0006068009902888A430280384691E6FFB5E9
:1054E0009BB0249D0E46002805D0172803D82A8893
:1054F0002E4B9A4202D107201FB0F0BD32785306DE
:1055000001D4D20901D00820F6E700226B461A70B8
:105510005A701446327802AB1793431E19939BB20C
:1055200016939706CB1CBF0E1893821E711C3B006E
:1055300016F0F8F9209011F066F074F0B4F0D6F09F
:10554000EFF0EEF0EDF0ECF0EBF0F0F0EAF0E9F077
:10555000E8F0E7F090F005287CD10421684601705E
:10556000A9780171F078B278010211436846C180D0
:105570003179417070788006800E0C282ED009DCBD
:10558000801E030016F0CEF90919661C66216624F8
:105590006627660012282AD00ADC0E2821D010289F
:1055A000DAD121E09C090020FF710000FFFF00001C
:1055B00016281FD01828CFD11FE02878800701E0D7
:1055C00028784007002845DA4FE128780007F9E7F6
:1055D0002878C006F6E728788006F3E728784006A2
:1055E000F0E728780006EDE72888C005EAE7288874
:1055F000C004E7E728888004E4E728884004E1E75E
:105600002A78920726D50328A6D105206A4610706D
:105610004878097800020843908026E129784907F4
:10562000F0D5062816D3707891B2012802D002284E
:1056300092D101E0022700E010270622684602709E
:105640007278827100228280179AB01C1692BA1C5E
:1056500018921EE0BDE042780378801C1790120279
:10566000891E16981A431991028016983A46801C92
:10567000179915F0AEFE169A1798D219921C19991F
:105680006B4616929A88C019C91B521C9A80189AA8
:1056900089B28A42DFD900298DD1E6E02878000757
:1056A000B0D519986A4681B207201070002090800A
:1056B000701C921D11E0437807781B023B43138056
:1056C000C37887781B023B4353806F46BB88091F12
:1056D0005B1C001D89B2BB80121D0429EBD2DAE7E6
:1056E0002978C90675D5022873D308216846017048
:1056F0000021C180717801718C4692B2B01C17995B
:1057000019E091E098E086E06FE063E038E02DE09A
:1057100021E015E0C4E0437807781B023B430B808F
:10572000831C4B606346D21A6F46FB8860445B1C47
:1057300092B2FB8008319445EDD9002A49D194E01A
:105740002878800645D5092268460270AA8882809A
:10575000169AC28012E0287840063AD50A206A4696
:105760001070A88890801698D08007E028780006EE
:105770002FD50B206A46107016989080029174E025
:105780002988C90525D5022823D30C20694608702D
:105790000020C88070780871844692B2B01C1799B6
:1057A00014E0437807781B023B430B80C37887786B
:1057B0001B023B434B80031D4B606346D21A6F466E
:1057C000FB8860445B1C92B2FB8008319445E8D9A9
:1057D000B3E763E02988C90460D501285ED10D21B3
:1057E00068460170A98881803FE02988890455D5E1
:1057F000052853D30E2269460A70AA888A80189910
:10580000401F4A78097812020A436946CA80088113
:10581000701D039029E0298849043FD501283DD116
:105820000F206946087020E02A88120436D44A788E
:105830000B7812021A43EA8003282FD3327892069B
:10584000920E1B2A26D011226B461A702A88012339
:10585000DB031A432A804A780B78110219436A46FF
:105860009180C01ED0801898029030788006800EFB
:105870001B2809D01D2807D003201E99FFF737FCED
:105880002888C00BC003288068461D9904F080F961
:10589000204631E610226B461A70DCE70724F7E752
:1058A0000824F5E700B597B0032806D16A461070C2
:1058B00001910021684604F06BF917B000BD0000AB
:1058C00010B58B78002B11D082789A4207D10B88C3
:1058D000002B0BD003E08B79091D002B08D08B78AF
:1058E0009A42F8D103880C88A342F4D1002010BD5D
:1058F000812010BD052826D0002A02D0012A0DD112
:1059000002E00988090501E009888904890F07D0A8
:10591000012918D0022909D003290ED0812070470F
:10592000002A01D0032070470220704703280AD0C4
:10593000042808D0002804D007E0042803D0022857
:1059400003D005207047002070470F20704770B5C6
:105950001388054614460B8018061DD5FE481022F4
:10596000807AA84203D813430B80002070BDA06842
:1059700093430078E840C007C00E03430B802078B3
:10598000A1788007800D0843F44915F08BFDA068CD
:1059900069430818401C70BD906870BD37B56946F2
:1059A0008B88138019061BD5EB4C0125A47A9168CE
:1059B000844209D8FE280FD1D80602D5A5406D1E15
:1059C00000E000250D7007E085400C78DB06DB0F5A
:1059D000AC4383401C430C70108810218843108016
:1059E0003EBDF8B50746C81C80080E468000B04290
:1059F00001D08620F8BD082A01D90E20F8BDD64D69
:105A000000202E60AF802881AA723446E88016E01C
:105A1000E988491CE980810610D48007A178800DAF
:105A20000843CE4915F03EFD206800F0C8FA2989E8
:105A3000401880B22881381A8019A0600C34208860
:105A40004107E5D40020F8BDFFB589B09F04164694
:105A5000139DBF0C0193099800F0A3FA04000AD02B
:105A60002078000609D5BC48817A0A98814204D87A
:105A700087200DB0F0BD0120FBE7224669460A9859
:105A8000FFF765FF0690002069460872052D14D0C7
:105A9000012221462846FFF72DFF0028E9D1207872
:105AA00040060AD502216846017209998181018860
:105AB000C18106824782129805900198000404D59E
:105AC00000273E460125079709E02078A178800746
:105AD000800D0843A149079015F0E4FC0D4601989C
:105AE00040040AD50798A84207D12088E1788005AC
:105AF000800F00020843B04201D3AE4201D9072013
:105B0000B7E7B81980B20190A84201D90D20B0E7DB
:105B10006846007A002804D002A804F098FE002805
:105B2000A7D10798A8420BD12088032109028843F6
:105B300001998905890F0902084320800198E070C6
:105B40001498002800D007801298002815D00698D5
:105B50003A468019129915F03CFC224669460A988B
:105B6000FFF7F5FE694608881021884369460880DA
:105B7000224600990A98FFF711FF002079E7FFB548
:105B8000754D0C22E8882968504383B00C180D9F8E
:105B90007249059815F086FC0091049800F00FFA00
:105BA00029682A898E46611A0C31091894465118C1
:105BB0008AB2A988914202D8842007B0F0BD6A4613
:105BC000168A320603D5B20601D58520F5E7EA88A4
:105BD000521C92B2EA800E9B002B00D01A80B206B3
:105BE00001D5A76006E0604480B22881091A70469A
:105BF0000818A0602246FE200499FFF7CFFE059802
:105C0000A0700098E07020880599800889058000C0
:105C1000890F084303210902884300998905890FE8
:105C20000902084304210843208003988078A0716A
:105C300003980088A08000202073310601D5AC7A3B
:105C400000E00124B10600D5002700260EE0052162
:105C50000020019102900097E88831460C9B069A3B
:105C6000FFF7F2FE0028A8D1761CF6B2A642EED3CA
:105C70000020A2E7F1B5009800F093F9060002D0E9
:105C80000025009C14E00120F8BD204600F089F9B1
:105C90000746007831498007820DB878104315F027
:105CA00001FC386800F08BF94019641C85B2A4B27D
:105CB0002948C188601E8142E7DC00992648491EB8
:105CC000C1800189491B018100203070F8BD002886
:105CD00004D0401E10809170002070470120704752
:105CE00010B5044601881C48C288914201D3822025
:105CF00010BD00680C22514342189079A072908820
:105D000020811088D1788005800F00020843A0818F
:105D1000A078211DFFF71BFE20612088401C2080F9
:105D2000E080002010BD012101827047F7B50546D3
:105D3000002084B0C04310806868174681786846A8
:105D40008170686801886846018000218171288A15
:105D50002C88A04205D303E0A8090020010200001E
:105D600004462C8235E0288A401C2882301D696850
:105D7000FFF7A6FD00282AD139889948814201D130
:105D8000601E38806888A04228D33088F17880056A
:105D9000800F0002084302906946301DFFF790FD16
:105DA000002814D169898E4881421BD000223146D7
:105DB0000598FFF79FFD002809D16A890298824261
:105DC00005D1E968B06815F0D7FA00280AD0641C3C
:105DD000A4B2204600F0E5F80600C4D1641E2C826F
:105DE0008220EAE67C80B079B871B088B8803078DB
:105DF000B1788007800D084378810298B8813946D0
:105E0000287A32460831FFF7A2FD38610020D4E637
:105E1000FFB585B01C460F46059800F0C2F8050096
:105E200009D02878000608D56E48807AB84204D890
:105E3000872009B0F0BD0120FBE707982A468605B8
:105E4000B60D69463846FFF782FD07460E980528CD
:105E500016D000222946FFF74DFD0028E9D1287809
:105E600040060DD50121684601710599018101881F
:105E700041818681C48101A804F0E9FC0028D8D1C1
:105E80002888AA788107890D11438005800FEA7858
:105E900000021043079A964207D0534A914204D316
:105EA000611E814201DD0B20C3E7864201D9072034
:105EB000BFE7801B82B2A24200D922461098002878
:105EC00000D002800F98002802D0B91915F081FA8D
:105ED0000020AEE7F8B51D4617460E4600F061F803
:105EE000040008D02078000607D53E48807AB042EA
:105EF00003D88720F8BD0120F8BD22463946304638
:105F0000FFF725FD002D0BD02078A1788007800DAC
:105F100008433549884201D2012000E00020287062
:105F20000020F8BDF8B51E4617460D4600F039F8BA
:105F3000040008D02078000607D52A48807AA842B5
:105F400003D88720F8BD0120F8BD224639462846EF
:105F5000FFF724FDFF2E14D02588A178A807800D17
:105F60000843214915F09EFA002E03D1FF31FF317D
:105F7000033189B2A170A80880008905890F084300
:105F800020800020F8BD10B50C4600F00AF800286B
:105F900005D0818821808079A070002010BD01206B
:105FA00010BD1049CA88824207D3002805D00C22B0
:105FB000096850430C38081870470020704703B533
:105FC0000846694609888A0607D4090604D50549A2
:105FD000897A4143491C88B20CBD00200CBD0000E9
:105FE000FFFF0000A80900200102000070B5FA4D73
:105FF000040008D0012C10D0022C07D0032C05D0AF
:10600000F6A1762007E0F5A16D2004E028780128AC
:1060100003D0F2A1732015F064FB2C7070BD70B535
:10602000ED4D044610280AD0112C16D02846817850
:10603000122C07D0132C0AD0E8A1A5200BE0E7A171
:106040009A2008E0112908D0E4A19F2003E011293B
:1060500003D0E2A1A22015F044FBAC7070BD10B5D6
:10606000DD4994B0C878002818D017206A4610700F
:1060700000A806220230091D15F0ABF909A96846EF
:1060800006F0DDF80446112805D0002C03D0D3A17A
:10609000C12015F026FB204614B010BD3220E5E7E4
:1060A00010B5022108F031FE10BDFFB595B01D46B8
:1060B0000E460746FFF7F4FF04000AD02078222896
:1060C00004D3A07F8006C00FA84204D1082019B0D5
:1060D000F0BDCA48FBE73721684601704780002DB4
:1060E00005D00121017146711799817102E00020EC
:1060F0006946087109A9684606F0A1F8A07FDF216A
:10610000084069010843A0770020E0E770B5044625
:10611000084620380D46030015F004FC0A060A1153
:10612000232C334249505761FF20ACA10E3052E07E
:106130002078202851D1FF20A8A111304BE0A6489B
:106140000178032949D08078132846D02078242864
:1061500043D0252841D023283FD0FF209FA11430D1
:1061600039E02078222838D0232836D8FF209BA178
:106170001B3030E0207822282FD0FF2097A11F303D
:1061800029E02078222828D0242826D0262824D0A8
:10619000272822D0292820D0FF2090A122301AE0E1
:1061A0002078252819D0FF208CA1293013E02078F1
:1061B000252812D0FF2089A12C300CE0207825283A
:1061C0000BD0FF2085A12F3005E02078282804D0AF
:1061D000FF2082A1323015F084FA257070BDFF20B7
:1061E0007EA13530F7E730B5854C0B88854A02280B
:1061F00001D0934204D09D1FA54225D2022802D08F
:106200004D88954203D04D88AD1FA5421CD24C88C5
:10621000A34219D88B88FF25F435AB4214D8022845
:1062200002D0C888904205D0C888754D0A382D1F05
:10623000A84209D2C888904208D0944206D05B1C7C
:1062400063438000834201DB072030BD002030BD66
:10625000F0B56D49884245D36C4A01256D07136836
:10626000A84201D398423DD30279002A06D0082AD9
:1062700002D8067B082E05D90720F0BD047B002C30
:10628000FAD0F6E7002A06D004688C422AD3AC4242
:1062900001D39C4226D3002E06D084688C4221D3A1
:1062A000AC4201D39C421DD300240CE00568A7003A
:1062B000ED598D4216D301277F07BD4201D39D4280
:1062C00010D3641CE4B2A242F0D8002201256D076D
:1062D0000CE084689700E4598C4203D3AC4203D3AA
:1062E0009C4201D21020F0BD521CD2B29642F0D88E
:1062F0000020F0BD10B50289454B111F994213D201
:106300004189042910D3DB1C99420DD891420BD846
:106310000178890706D54068002803D0FFF798FF69
